{
  "address": "0x223dDEE5799647808858b64865b584416cDB7AF2",
  "abi": [
    {
      "inputs": [
        {
          "internalType": "address",
          "name": "initialOwner",
          "type": "address"
        }
      ],
      "stateMutability": "nonpayable",
      "type": "constructor"
    },
    {
      "inputs": [
        {
          "internalType": "address",
          "name": "sender",
          "type": "address"
        },
        {
          "internalType": "uint256",
          "name": "tokenId",
          "type": "uint256"
        },
        {
          "internalType": "address",
          "name": "owner",
          "type": "address"
        }
      ],
      "name": "ERC721IncorrectOwner",
      "type": "error"
    },
    {
      "inputs": [
        {
          "internalType": "address",
          "name": "operator",
          "type": "address"
        },
        {
          "internalType": "uint256",
          "name": "tokenId",
          "type": "uint256"
        }
      ],
      "name": "ERC721InsufficientApproval",
      "type": "error"
    },
    {
      "inputs": [
        {
          "internalType": "address",
          "name": "approver",
          "type": "address"
        }
      ],
      "name": "ERC721InvalidApprover",
      "type": "error"
    },
    {
      "inputs": [
        {
          "internalType": "address",
          "name": "operator",
          "type": "address"
        }
      ],
      "name": "ERC721InvalidOperator",
      "type": "error"
    },
    {
      "inputs": [
        {
          "internalType": "address",
          "name": "owner",
          "type": "address"
        }
      ],
      "name": "ERC721InvalidOwner",
      "type": "error"
    },
    {
      "inputs": [
        {
          "internalType": "address",
          "name": "receiver",
          "type": "address"
        }
      ],
      "name": "ERC721InvalidReceiver",
      "type": "error"
    },
    {
      "inputs": [
        {
          "internalType": "address",
          "name": "sender",
          "type": "address"
        }
      ],
      "name": "ERC721InvalidSender",
      "type": "error"
    },
    {
      "inputs": [
        {
          "internalType": "uint256",
          "name": "tokenId",
          "type": "uint256"
        }
      ],
      "name": "ERC721NonexistentToken",
      "type": "error"
    },
    {
      "inputs": [],
      "name": "OnlyCore",
      "type": "error"
    },
    {
      "inputs": [
        {
          "internalType": "address",
          "name": "owner",
          "type": "address"
        }
      ],
      "name": "OwnableInvalidOwner",
      "type": "error"
    },
    {
      "inputs": [
        {
          "internalType": "address",
          "name": "account",
          "type": "address"
        }
      ],
      "name": "OwnableUnauthorizedAccount",
      "type": "error"
    },
    {
      "inputs": [
        {
          "internalType": "uint256",
          "name": "tokenId",
          "type": "uint256"
        }
      ],
      "name": "TransferLocked",
      "type": "error"
    },
    {
      "inputs": [],
      "name": "ZeroAddress",
      "type": "error"
    },
    {
      "anonymous": false,
      "inputs": [
        {
          "indexed": true,
          "internalType": "address",
          "name": "owner",
          "type": "address"
        },
        {
          "indexed": true,
          "internalType": "address",
          "name": "approved",
          "type": "address"
        },
        {
          "indexed": true,
          "internalType": "uint256",
          "name": "tokenId",
          "type": "uint256"
        }
      ],
      "name": "Approval",
      "type": "event"
    },
    {
      "anonymous": false,
      "inputs": [
        {
          "indexed": true,
          "internalType": "address",
          "name": "owner",
          "type": "address"
        },
        {
          "indexed": true,
          "internalType": "address",
          "name": "operator",
          "type": "address"
        },
        {
          "indexed": false,
          "internalType": "bool",
          "name": "approved",
          "type": "bool"
        }
      ],
      "name": "ApprovalForAll",
      "type": "event"
    },
    {
      "anonymous": false,
      "inputs": [
        {
          "indexed": true,
          "internalType": "address",
          "name": "previousOwner",
          "type": "address"
        },
        {
          "indexed": true,
          "internalType": "address",
          "name": "newOwner",
          "type": "address"
        }
      ],
      "name": "OwnershipTransferred",
      "type": "event"
    },
    {
      "anonymous": false,
      "inputs": [
        {
          "indexed": true,
          "internalType": "address",
          "name": "from",
          "type": "address"
        },
        {
          "indexed": true,
          "internalType": "address",
          "name": "to",
          "type": "address"
        },
        {
          "indexed": true,
          "internalType": "uint256",
          "name": "tokenId",
          "type": "uint256"
        }
      ],
      "name": "Transfer",
      "type": "event"
    },
    {
      "inputs": [
        {
          "internalType": "address",
          "name": "to",
          "type": "address"
        },
        {
          "internalType": "uint256",
          "name": "tokenId",
          "type": "uint256"
        }
      ],
      "name": "approve",
      "outputs": [],
      "stateMutability": "nonpayable",
      "type": "function"
    },
    {
      "inputs": [
        {
          "internalType": "address",
          "name": "owner",
          "type": "address"
        }
      ],
      "name": "balanceOf",
      "outputs": [
        {
          "internalType": "uint256",
          "name": "",
          "type": "uint256"
        }
      ],
      "stateMutability": "view",
      "type": "function"
    },
    {
      "inputs": [],
      "name": "core",
      "outputs": [
        {
          "internalType": "address",
          "name": "",
          "type": "address"
        }
      ],
      "stateMutability": "view",
      "type": "function"
    },
    {
      "inputs": [
        {
          "internalType": "uint256",
          "name": "tokenId",
          "type": "uint256"
        }
      ],
      "name": "getApproved",
      "outputs": [
        {
          "internalType": "address",
          "name": "",
          "type": "address"
        }
      ],
      "stateMutability": "view",
      "type": "function"
    },
    {
      "inputs": [
        {
          "internalType": "address",
          "name": "owner",
          "type": "address"
        },
        {
          "internalType": "address",
          "name": "operator",
          "type": "address"
        }
      ],
      "name": "isApprovedForAll",
      "outputs": [
        {
          "internalType": "bool",
          "name": "",
          "type": "bool"
        }
      ],
      "stateMutability": "view",
      "type": "function"
    },
    {
      "inputs": [
        {
          "internalType": "uint256",
          "name": "tokenId",
          "type": "uint256"
        }
      ],
      "name": "isTransferLocked",
      "outputs": [
        {
          "internalType": "bool",
          "name": "",
          "type": "bool"
        }
      ],
      "stateMutability": "view",
      "type": "function"
    },
    {
      "inputs": [
        {
          "internalType": "address",
          "name": "to",
          "type": "address"
        },
        {
          "internalType": "uint256",
          "name": "tokenId",
          "type": "uint256"
        }
      ],
      "name": "mintTicket",
      "outputs": [],
      "stateMutability": "nonpayable",
      "type": "function"
    },
    {
      "inputs": [],
      "name": "name",
      "outputs": [
        {
          "internalType": "string",
          "name": "",
          "type": "string"
        }
      ],
      "stateMutability": "view",
      "type": "function"
    },
    {
      "inputs": [],
      "name": "owner",
      "outputs": [
        {
          "internalType": "address",
          "name": "",
          "type": "address"
        }
      ],
      "stateMutability": "view",
      "type": "function"
    },
    {
      "inputs": [
        {
          "internalType": "uint256",
          "name": "tokenId",
          "type": "uint256"
        }
      ],
      "name": "ownerOf",
      "outputs": [
        {
          "internalType": "address",
          "name": "",
          "type": "address"
        }
      ],
      "stateMutability": "view",
      "type": "function"
    },
    {
      "inputs": [],
      "name": "renounceOwnership",
      "outputs": [],
      "stateMutability": "nonpayable",
      "type": "function"
    },
    {
      "inputs": [
        {
          "internalType": "address",
          "name": "from",
          "type": "address"
        },
        {
          "internalType": "address",
          "name": "to",
          "type": "address"
        },
        {
          "internalType": "uint256",
          "name": "tokenId",
          "type": "uint256"
        }
      ],
      "name": "safeTransferFrom",
      "outputs": [],
      "stateMutability": "nonpayable",
      "type": "function"
    },
    {
      "inputs": [
        {
          "internalType": "address",
          "name": "from",
          "type": "address"
        },
        {
          "internalType": "address",
          "name": "to",
          "type": "address"
        },
        {
          "internalType": "uint256",
          "name": "tokenId",
          "type": "uint256"
        },
        {
          "internalType": "bytes",
          "name": "data",
          "type": "bytes"
        }
      ],
      "name": "safeTransferFrom",
      "outputs": [],
      "stateMutability": "nonpayable",
      "type": "function"
    },
    {
      "inputs": [
        {
          "internalType": "address",
          "name": "operator",
          "type": "address"
        },
        {
          "internalType": "bool",
          "name": "approved",
          "type": "bool"
        }
      ],
      "name": "setApprovalForAll",
      "outputs": [],
      "stateMutability": "nonpayable",
      "type": "function"
    },
    {
      "inputs": [
        {
          "internalType": "address",
          "name": "newCore",
          "type": "address"
        }
      ],
      "name": "setCore",
      "outputs": [],
      "stateMutability": "nonpayable",
      "type": "function"
    },
    {
      "inputs": [
        {
          "internalType": "uint256",
          "name": "tokenId",
          "type": "uint256"
        },
        {
          "internalType": "bool",
          "name": "locked",
          "type": "bool"
        }
      ],
      "name": "setTransferLocked",
      "outputs": [],
      "stateMutability": "nonpayable",
      "type": "function"
    },
    {
      "inputs": [
        {
          "internalType": "bytes4",
          "name": "interfaceId",
          "type": "bytes4"
        }
      ],
      "name": "supportsInterface",
      "outputs": [
        {
          "internalType": "bool",
          "name": "",
          "type": "bool"
        }
      ],
      "stateMutability": "view",
      "type": "function"
    },
    {
      "inputs": [],
      "name": "symbol",
      "outputs": [
        {
          "internalType": "string",
          "name": "",
          "type": "string"
        }
      ],
      "stateMutability": "view",
      "type": "function"
    },
    {
      "inputs": [
        {
          "internalType": "uint256",
          "name": "tokenId",
          "type": "uint256"
        }
      ],
      "name": "tokenURI",
      "outputs": [
        {
          "internalType": "string",
          "name": "",
          "type": "string"
        }
      ],
      "stateMutability": "view",
      "type": "function"
    },
    {
      "inputs": [
        {
          "internalType": "address",
          "name": "from",
          "type": "address"
        },
        {
          "internalType": "address",
          "name": "to",
          "type": "address"
        },
        {
          "internalType": "uint256",
          "name": "tokenId",
          "type": "uint256"
        }
      ],
      "name": "transferFrom",
      "outputs": [],
      "stateMutability": "nonpayable",
      "type": "function"
    },
    {
      "inputs": [
        {
          "internalType": "address",
          "name": "newOwner",
          "type": "address"
        }
      ],
      "name": "transferOwnership",
      "outputs": [],
      "stateMutability": "nonpayable",
      "type": "function"
    }
  ],
  "transactionHash": "0x6acb5ffdfb1e46e9374e2a927ffc028469e2d616750c69ebb9cab1566f22f6ee",
  "args": [
    "0x805bdf14f6F7a417ff1e7Fb2FeD99Afd600D3430"
  ],
  "numDeployments": 1,
  "solcInputHash": "d0e56187f9180087e3f0202957d16e6a",
  "bytecode": "0x6080604052346103955761153d6020813803918261001c81610399565b93849283398101031261039557516001600160a01b03811690819003610395576100466040610399565b90601382527f4c75636b7953637261746368205469636b657400000000000000000000000000602083015261007b6040610399565b60058152641314d0d49560da1b602082015282519091906001600160401b0381116102a9575f54600181811c9116801561038b575b602082101461028b57601f8111610329575b506020601f82116001146102c857819293945f926102bd575b50508160011b915f199060031b1c1916175f555b81516001600160401b0381116102a957600154600181811c9116801561029f575b602082101461028b57601f8111610228575b50602092601f82116001146101c757928192935f926101bc575b50508160011b915f199060031b1c1916176001555b80156101a957600680546001600160a01b03198116831790915560405191906001600160a01b03167f8be0079c531659141344cd1fd0a4f28419497f9722a3daafe3b4186f6b6457e05f80a361117e90816103bf8239f35b631e4fbdf760e01b5f525f60045260245ffd5b015190505f8061013c565b601f1982169360015f52805f20915f5b86811061021057508360019596106101f8575b505050811b01600155610151565b01515f1960f88460031b161c191690555f80806101ea565b919260206001819286850151815501940192016101d7565b60015f527fb10e2d527612073b26eecdfd717e6a320cf44b4afac2b0732d9fcbe2b7fa0cf6601f830160051c81019160208410610281575b601f0160051c01905b8181106102765750610122565b5f8155600101610269565b9091508190610260565b634e487b7160e01b5f52602260045260245ffd5b90607f1690610110565b634e487b7160e01b5f52604160045260245ffd5b015190505f806100db565b601f198216905f8052805f20915f5b818110610311575095836001959697106102f9575b505050811b015f556100ef565b01515f1960f88460031b161c191690555f80806102ec565b9192602060018192868b0151815501940192016102d7565b5f80527f290decd9548b62a8d60345a988386fc84ba6bc95484008f6362f93160ef3e563601f830160051c81019160208410610381575b601f0160051c01905b81811061037657506100c2565b5f8155600101610369565b9091508190610360565b90607f16906100b0565b5f80fd5b6040519190601f01601f191682016001600160401b038111838210176102a95760405256fe6080806040526004361015610012575f80fd5b5f905f3560e01c90816301ffc9a714610bc85750806306fdde0314610b10578063081812fc14610ad4578063095ea7b3146109ea57806323b872dd146109d357806342842e0e146109a25780636352211e1461097257806370a0823114610921578063715018a6146108d957806380009630146108845780638da5cb5b1461085c57806395d89b41146107545780639913627f14610725578063a22cb46514610684578063a5f7f46614610355578063b88d4fde146102ba578063beb42f3414610259578063c87b56dd146101fe578063e985e9c5146101a6578063f2f4eb261461017d5763f2fde38b14610105575f80fd5b3461017a57602036600319011261017a5761011e610c57565b610126610f8f565b6001600160a01b0316801561016657600680546001600160a01b0319811683179091556001600160a01b03165f5160206111095f395f51905f525f80a380f35b631e4fbdf760e01b82526004829052602482fd5b80fd5b503461017a578060031936011261017a576007546040516001600160a01b039091168152602090f35b503461017a57604036600319011261017a5760406101c2610c57565b916101cb610c6d565b9260018060a01b031681526005602052209060018060a01b03165f52602052602060ff60405f2054166040519015158152f35b503461017a57602036600319011261017a5761021b600435610f5b565b508060405161022b602082610ccc565b525061025560405161023e602082610ccc565b5f8152604051918291602083526020830190610c33565b0390f35b503461017a57604036600319011261017a57610273610cbd565b6007546001600160a01b031633036102ab576102a89060043583526008602052604083209060ff801983541691151516179055565b80f35b636e4b6fef60e11b8252600482fd5b503461017a57608036600319011261017a576102d4610c57565b6102dc610c6d565b60643590604435906001600160401b0383116103515736602384011215610351578260040135938561030d86610d03565b9461031b6040519687610ccc565b868652366024888301011161034d57866102a8976024602093018389013786010152610348838383610d1e565b610fb6565b5080fd5b8480fd5b50346105f25760403660031901126105f25761036f610c57565b6007546024359291906001600160a01b03163303610675576040516020936103978583610ccc565b5f82526001600160a01b038316928315610662575f8281526002875260409020546001600160a01b0316801515808061065a575b80610645575b610632575f8481526002895260409020546001600160a01b03168015159290919083610612575b875f5260038a5260405f2060018154019055855f5260028a5260405f208860018060a01b0319825416179055604051918689855f5160206111295f395f51905f525f80a48061060a575b806105f6575b610589575b505050610575573b61045d578380f35b6104979185916040519384928392630a85bd0160e11b84523360048501528860248501526044840152608060648401526084830190610c33565b038186865af1839181610531575b506104fb57503d156104f4573d6104bb81610d03565b906104c96040519283610ccc565b81523d838583013e5b805193846104ee57633250574960e11b84526004839052602484fd5b84925001fd5b60606104d2565b919250906001600160e01b03191663757a42ff60e11b0161051f5750805f80808380f35b633250574960e11b8252600452602490fd5b9091508481813d831161056e575b6105498183610ccc565b8101031261056a57516001600160e01b03198116810361056a57905f6104a5565b8380fd5b503d61053f565b6339e3563760e11b85526004859052602485fd5b6007546001600160a01b0316803b156105f2576064835f8193819563400496cb60e01b84528b600485015260248401528c60448401525af180156105e7576105d2575b8061044d565b6105df9197505f90610ccc565b5f955f6105cc565b6040513d5f823e3d90fd5b5f80fd5b506007546001600160a01b03161515610448565b506001610442565b61061b866110eb565b825f5260038a5260405f205f1981540190556103f8565b8363a9de8c6f60e01b5f5260045260245ffd5b50835f526008885260ff60405f2054166103d1565b5060016103cb565b633250574960e11b5f525f60045260245ffd5b636e4b6fef60e11b5f5260045ffd5b346105f25760403660031901126105f25761069d610c57565b6106a5610cbd565b6001600160a01b0390911690811561071257335f52600560205260405f20825f526020526106e28160405f209060ff801983541691151516179055565b60405190151581527f17307eab39ab6107e8899845ad3d59bd9653f200f220920489ca2b5937696c3160203392a3005b50630b61174360e31b5f5260045260245ffd5b346105f25760203660031901126105f2576004355f526008602052602060ff60405f2054166040519015158152f35b346105f2575f3660031901126105f2576040515f6001548060011c90600181168015610852575b60208310811461083e5782855290811561081a57506001146107bc575b610255836107a881850382610ccc565b604051918291602083526020830190610c33565b60015f9081527fb10e2d527612073b26eecdfd717e6a320cf44b4afac2b0732d9fcbe2b7fa0cf6939250905b808210610800575090915081016020016107a8610798565b9192600181602092548385880101520191019092916107e8565b60ff191660208086019190915291151560051b840190910191506107a89050610798565b634e487b7160e01b5f52602260045260245ffd5b91607f169161077b565b346105f2575f3660031901126105f2576006546040516001600160a01b039091168152602090f35b346105f25760203660031901126105f25761089d610c57565b6108a5610f8f565b6001600160a01b031680156108ca57600780546001600160a01b031916919091179055005b63d92e233d60e01b5f5260045ffd5b346105f2575f3660031901126105f2576108f1610f8f565b600680546001600160a01b031981169091555f906001600160a01b03165f5160206111095f395f51905f528280a3005b346105f25760203660031901126105f2576001600160a01b03610942610c57565b16801561095f575f526003602052602060405f2054604051908152f35b6322718ad960e21b5f525f60045260245ffd5b346105f25760203660031901126105f2576020610990600435610f5b565b6040516001600160a01b039091168152f35b346105f2576109d16109b336610c83565b90604051926109c3602085610ccc565b5f8452610348838383610d1e565b005b346105f2576109d16109e436610c83565b91610d1e565b346105f25760403660031901126105f257610a03610c57565b602435610a0f81610f5b565b33151580610ac1575b80610a94575b610a815781906001600160a01b0384811691167f8c5be1e5ebec7d5bd14f71427d1e84f3dd0314c0f7b2291e5b200ac8c7c3b9255f80a45f90815260046020526040902080546001600160a01b0319166001600160a01b03909216919091179055005b63a9fbf51f60e01b5f523360045260245ffd5b506001600160a01b0381165f90815260056020908152604080832033845290915290205460ff1615610a1e565b506001600160a01b038116331415610a18565b346105f25760203660031901126105f257600435610af181610f5b565b505f526004602052602060018060a01b0360405f205416604051908152f35b346105f2575f3660031901126105f2576040515f5f548060011c90600181168015610bbe575b60208310811461083e5782855290811561081a5750600114610b6257610255836107a881850382610ccc565b5f8080527f290decd9548b62a8d60345a988386fc84ba6bc95484008f6362f93160ef3e563939250905b808210610ba4575090915081016020016107a8610798565b919260018160209254838588010152019101909291610b8c565b91607f1691610b36565b346105f25760203660031901126105f2576004359063ffffffff60e01b82168092036105f2576020916380ac58cd60e01b8114908115610c22575b8115610c11575b5015158152f35b6301ffc9a760e01b14905083610c0a565b635b5e139f60e01b81149150610c03565b805180835260209291819084018484015e5f828201840152601f01601f1916010190565b600435906001600160a01b03821682036105f257565b602435906001600160a01b03821682036105f257565b60609060031901126105f2576004356001600160a01b03811681036105f257906024356001600160a01b03811681036105f2579060443590565b6024359081151582036105f257565b601f909101601f19168101906001600160401b03821190821017610cef57604052565b634e487b7160e01b5f52604160045260245ffd5b6001600160401b038111610cef57601f01601f191660200190565b5f926001600160a01b0390921691908215610662575f828152600260205260409020546001600160a01b031692831515908180610f53575b80610f3d575b610632575f848152600260205260409020546001600160a01b03169433151580610ead575b5085610e8c575b815f52600360205260405f2060018154019055845f52600260205260405f208260018060a01b0319825416179055604051928583885f5160206111295f395f51905f525f80a480610e84575b80610e70575b610e11575b5050506001600160a01b0316808303610df85750505050565b6364283d7b60e01b845260045260245260445260649150fd5b6007546001600160a01b0316803b156105f257835f6064928195839563400496cb60e01b85528a6004860152602485015260448401525af180156105e757610e5b575b8080610ddf565b610e689194505f90610ccc565b5f925f610e54565b506007546001600160a01b03161515610dda565b506001610dd4565b610e95856110eb565b855f52600360205260405f205f198154019055610d88565b80610eec575b15610ebe575f610d81565b8486610ed657637e27328960e01b5f5260045260245ffd5b63177e802f60e01b5f523360045260245260445ffd5b503386148015610f1b575b80610eb357505f858152600460205260409020546001600160a01b03163314610eb3565b505f86815260056020908152604080832033845290915290205460ff16610ef7565b50835f52600860205260ff60405f205416610d5c565b506001610d56565b5f818152600260205260409020546001600160a01b0316908115610f7d575090565b637e27328960e01b5f5260045260245ffd5b6006546001600160a01b03163303610fa357565b63118cdaa760e01b5f523360045260245ffd5b9291813b610fc5575b50505050565b604051630a85bd0160e11b81523360048201526001600160a01b0394851660248201526044810191909152608060648201529216919060209082908190611010906084830190610c33565b03815f865af15f91816110a6575b5061107357503d1561106c573d61103481610d03565b906110426040519283610ccc565b81523d5f602083013e5b805190816110675782633250574960e11b5f5260045260245ffd5b602001fd5b606061104c565b6001600160e01b03191663757a42ff60e11b0161109457505f808080610fbf565b633250574960e11b5f5260045260245ffd5b9091506020813d6020116110e3575b816110c260209383610ccc565b810103126105f257516001600160e01b0319811681036105f257905f61101e565b3d91506110b5565b5f90815260046020526040902080546001600160a01b031916905556fe8be0079c531659141344cd1fd0a4f28419497f9722a3daafe3b4186f6b6457e0ddf252ad1be2c89b69c2b068fc378daa952ba7f163c4a11628f55a4df523b3efa26469706673582212206a54ead6b683a9bc3c6ff83369906b6705083e586c81f1e6d4c859995fa6c15664736f6c634300081e0033",
  "devdoc": {
    "errors": {
      "ERC721IncorrectOwner(address,uint256,address)": [
        {
          "details": "Indicates an error related to the ownership over a particular token. Used in transfers.",
          "params": {
            "owner": "Address of the current owner of a token.",
            "sender": "Address whose tokens are being transferred.",
            "tokenId": "Identifier number of a token."
          }
        }
      ],
      "ERC721InsufficientApproval(address,uint256)": [
        {
          "details": "Indicates a failure with the `operator`’s approval. Used in transfers.",
          "params": {
            "operator": "Address that may be allowed to operate on tokens without being their owner.",
            "tokenId": "Identifier number of a token."
          }
        }
      ],
      "ERC721InvalidApprover(address)": [
        {
          "details": "Indicates a failure with the `approver` of a token to be approved. Used in approvals.",
          "params": {
            "approver": "Address initiating an approval operation."
          }
        }
      ],
      "ERC721InvalidOperator(address)": [
        {
          "details": "Indicates a failure with the `operator` to be approved. Used in approvals.",
          "params": {
            "operator": "Address that may be allowed to operate on tokens without being their owner."
          }
        }
      ],
      "ERC721InvalidOwner(address)": [
        {
          "details": "Indicates that an address can't be an owner. For example, `address(0)` is a forbidden owner in EIP-20. Used in balance queries.",
          "params": {
            "owner": "Address of the current owner of a token."
          }
        }
      ],
      "ERC721InvalidReceiver(address)": [
        {
          "details": "Indicates a failure with the token `receiver`. Used in transfers.",
          "params": {
            "receiver": "Address to which tokens are being transferred."
          }
        }
      ],
      "ERC721InvalidSender(address)": [
        {
          "details": "Indicates a failure with the token `sender`. Used in transfers.",
          "params": {
            "sender": "Address whose tokens are being transferred."
          }
        }
      ],
      "ERC721NonexistentToken(uint256)": [
        {
          "details": "Indicates a `tokenId` whose `owner` is the zero address.",
          "params": {
            "tokenId": "Identifier number of a token."
          }
        }
      ],
      "OwnableInvalidOwner(address)": [
        {
          "details": "The owner is not a valid owner account. (eg. `address(0)`)"
        }
      ],
      "OwnableUnauthorizedAccount(address)": [
        {
          "details": "The caller account is not authorized to perform an operation."
        }
      ]
    },
    "events": {
      "Approval(address,address,uint256)": {
        "details": "Emitted when `owner` enables `approved` to manage the `tokenId` token."
      },
      "ApprovalForAll(address,address,bool)": {
        "details": "Emitted when `owner` enables or disables (`approved`) `operator` to manage all of its assets."
      },
      "Transfer(address,address,uint256)": {
        "details": "Emitted when `tokenId` token is transferred from `from` to `to`."
      }
    },
    "kind": "dev",
    "methods": {
      "approve(address,uint256)": {
        "details": "See {IERC721-approve}."
      },
      "balanceOf(address)": {
        "details": "See {IERC721-balanceOf}."
      },
      "getApproved(uint256)": {
        "details": "See {IERC721-getApproved}."
      },
      "isApprovedForAll(address,address)": {
        "details": "See {IERC721-isApprovedForAll}."
      },
      "name()": {
        "details": "See {IERC721Metadata-name}."
      },
      "owner()": {
        "details": "Returns the address of the current owner."
      },
      "renounceOwnership()": {
        "details": "Leaves the contract without owner. It will not be possible to call `onlyOwner` functions. Can only be called by the current owner. NOTE: Renouncing ownership will leave the contract without an owner, thereby disabling any functionality that is only available to the owner."
      },
      "safeTransferFrom(address,address,uint256)": {
        "details": "See {IERC721-safeTransferFrom}."
      },
      "safeTransferFrom(address,address,uint256,bytes)": {
        "details": "See {IERC721-safeTransferFrom}."
      },
      "setApprovalForAll(address,bool)": {
        "details": "See {IERC721-setApprovalForAll}."
      },
      "supportsInterface(bytes4)": {
        "details": "See {IERC165-supportsInterface}."
      },
      "symbol()": {
        "details": "See {IERC721Metadata-symbol}."
      },
      "tokenURI(uint256)": {
        "details": "See {IERC721Metadata-tokenURI}."
      },
      "transferFrom(address,address,uint256)": {
        "details": "See {IERC721-transferFrom}."
      },
      "transferOwnership(address)": {
        "details": "Transfers ownership of the contract to a new account (`newOwner`). Can only be called by the current owner."
      }
    },
    "version": 1
  },
  "userdoc": {
    "kind": "user",
    "methods": {},
    "version": 1
  },
  "storageLayout": {
    "storage": [
      {
        "astId": 42877,
        "contract": "contracts/luckyScratch/LuckyScratchTicket.sol:LuckyScratchTicket",
        "label": "_name",
        "offset": 0,
        "slot": "0",
        "type": "t_string_storage"
      },
      {
        "astId": 42879,
        "contract": "contracts/luckyScratch/LuckyScratchTicket.sol:LuckyScratchTicket",
        "label": "_symbol",
        "offset": 0,
        "slot": "1",
        "type": "t_string_storage"
      },
      {
        "astId": 42883,
        "contract": "contracts/luckyScratch/LuckyScratchTicket.sol:LuckyScratchTicket",
        "label": "_owners",
        "offset": 0,
        "slot": "2",
        "type": "t_mapping(t_uint256,t_address)"
      },
      {
        "astId": 42887,
        "contract": "contracts/luckyScratch/LuckyScratchTicket.sol:LuckyScratchTicket",
        "label": "_balances",
        "offset": 0,
        "slot": "3",
        "type": "t_mapping(t_address,t_uint256)"
      },
      {
        "astId": 42891,
        "contract": "contracts/luckyScratch/LuckyScratchTicket.sol:LuckyScratchTicket",
        "label": "_tokenApprovals",
        "offset": 0,
        "slot": "4",
        "type": "t_mapping(t_uint256,t_address)"
      },
      {
        "astId": 42897,
        "contract": "contracts/luckyScratch/LuckyScratchTicket.sol:LuckyScratchTicket",
        "label": "_operatorApprovals",
        "offset": 0,
        "slot": "5",
        "type": "t_mapping(t_address,t_mapping(t_address,t_bool))"
      },
      {
        "astId": 42543,
        "contract": "contracts/luckyScratch/LuckyScratchTicket.sol:LuckyScratchTicket",
        "label": "_owner",
        "offset": 0,
        "slot": "6",
        "type": "t_address"
      },
      {
        "astId": 50638,
        "contract": "contracts/luckyScratch/LuckyScratchTicket.sol:LuckyScratchTicket",
        "label": "core",
        "offset": 0,
        "slot": "7",
        "type": "t_address"
      },
      {
        "astId": 50642,
        "contract": "contracts/luckyScratch/LuckyScratchTicket.sol:LuckyScratchTicket",
        "label": "transferLocks",
        "offset": 0,
        "slot": "8",
        "type": "t_mapping(t_uint256,t_bool)"
      }
    ],
    "types": {
      "t_address": {
        "encoding": "inplace",
        "label": "address",
        "numberOfBytes": "20"
      },
      "t_bool": {
        "encoding": "inplace",
        "label": "bool",
        "numberOfBytes": "1"
      },
      "t_mapping(t_address,t_bool)": {
        "encoding": "mapping",
        "key": "t_address",
        "label": "mapping(address => bool)",
        "numberOfBytes": "32",
        "value": "t_bool"
      },
      "t_mapping(t_address,t_mapping(t_address,t_bool))": {
        "encoding": "mapping",
        "key": "t_address",
        "label": "mapping(address => mapping(address => bool))",
        "numberOfBytes": "32",
        "value": "t_mapping(t_address,t_bool)"
      },
      "t_mapping(t_address,t_uint256)": {
        "encoding": "mapping",
        "key": "t_address",
        "label": "mapping(address => uint256)",
        "numberOfBytes": "32",
        "value": "t_uint256"
      },
      "t_mapping(t_uint256,t_address)": {
        "encoding": "mapping",
        "key": "t_uint256",
        "label": "mapping(uint256 => address)",
        "numberOfBytes": "32",
        "value": "t_address"
      },
      "t_mapping(t_uint256,t_bool)": {
        "encoding": "mapping",
        "key": "t_uint256",
        "label": "mapping(uint256 => bool)",
        "numberOfBytes": "32",
        "value": "t_bool"
      },
      "t_string_storage": {
        "encoding": "bytes",
        "label": "string",
        "numberOfBytes": "32"
      },
      "t_uint256": {
        "encoding": "inplace",
        "label": "uint256",
        "numberOfBytes": "32"
      }
    }
  }
}