{
  "address": "0xEAbfC91ac49519A60D2e572cb518c938F3eD0683",
  "abi": [
    {
      "inputs": [
        {
          "internalType": "address",
          "name": "initialOwner",
          "type": "address"
        },
        {
          "internalType": "address",
          "name": "tokenAddress",
          "type": "address"
        }
      ],
      "stateMutability": "nonpayable",
      "type": "constructor"
    },
    {
      "inputs": [
        {
          "internalType": "address",
          "name": "target",
          "type": "address"
        }
      ],
      "name": "AddressEmptyCode",
      "type": "error"
    },
    {
      "inputs": [
        {
          "internalType": "address",
          "name": "account",
          "type": "address"
        }
      ],
      "name": "AddressInsufficientBalance",
      "type": "error"
    },
    {
      "inputs": [],
      "name": "FailedInnerCall",
      "type": "error"
    },
    {
      "inputs": [],
      "name": "OnlyCore",
      "type": "error"
    },
    {
      "inputs": [
        {
          "internalType": "address",
          "name": "owner",
          "type": "address"
        }
      ],
      "name": "OwnableInvalidOwner",
      "type": "error"
    },
    {
      "inputs": [
        {
          "internalType": "address",
          "name": "account",
          "type": "address"
        }
      ],
      "name": "OwnableUnauthorizedAccount",
      "type": "error"
    },
    {
      "inputs": [],
      "name": "ReentrancyGuardReentrantCall",
      "type": "error"
    },
    {
      "inputs": [
        {
          "internalType": "address",
          "name": "token",
          "type": "address"
        }
      ],
      "name": "SafeERC20FailedOperation",
      "type": "error"
    },
    {
      "inputs": [],
      "name": "ZeroAddress",
      "type": "error"
    },
    {
      "anonymous": false,
      "inputs": [
        {
          "indexed": true,
          "internalType": "address",
          "name": "previousOwner",
          "type": "address"
        },
        {
          "indexed": true,
          "internalType": "address",
          "name": "newOwner",
          "type": "address"
        }
      ],
      "name": "OwnershipTransferred",
      "type": "event"
    },
    {
      "inputs": [
        {
          "internalType": "address",
          "name": "payer",
          "type": "address"
        },
        {
          "internalType": "uint256",
          "name": "",
          "type": "uint256"
        },
        {
          "internalType": "uint256",
          "name": "amount",
          "type": "uint256"
        }
      ],
      "name": "collectTicketPayment",
      "outputs": [],
      "stateMutability": "nonpayable",
      "type": "function"
    },
    {
      "inputs": [],
      "name": "core",
      "outputs": [
        {
          "internalType": "address",
          "name": "",
          "type": "address"
        }
      ],
      "stateMutability": "view",
      "type": "function"
    },
    {
      "inputs": [],
      "name": "currentBalance",
      "outputs": [
        {
          "internalType": "uint256",
          "name": "",
          "type": "uint256"
        }
      ],
      "stateMutability": "view",
      "type": "function"
    },
    {
      "inputs": [
        {
          "internalType": "address",
          "name": "payer",
          "type": "address"
        },
        {
          "internalType": "uint256",
          "name": "",
          "type": "uint256"
        },
        {
          "internalType": "uint256",
          "name": "amount",
          "type": "uint256"
        }
      ],
      "name": "lockBond",
      "outputs": [],
      "stateMutability": "nonpayable",
      "type": "function"
    },
    {
      "inputs": [],
      "name": "owner",
      "outputs": [
        {
          "internalType": "address",
          "name": "",
          "type": "address"
        }
      ],
      "stateMutability": "view",
      "type": "function"
    },
    {
      "inputs": [
        {
          "internalType": "address",
          "name": "recipient",
          "type": "address"
        },
        {
          "internalType": "uint256",
          "name": "",
          "type": "uint256"
        },
        {
          "internalType": "uint256",
          "name": "amount",
          "type": "uint256"
        }
      ],
      "name": "payoutReward",
      "outputs": [],
      "stateMutability": "nonpayable",
      "type": "function"
    },
    {
      "inputs": [
        {
          "internalType": "address",
          "name": "recipient",
          "type": "address"
        },
        {
          "internalType": "uint256",
          "name": "",
          "type": "uint256"
        },
        {
          "internalType": "uint256",
          "name": "amount",
          "type": "uint256"
        }
      ],
      "name": "refundBond",
      "outputs": [],
      "stateMutability": "nonpayable",
      "type": "function"
    },
    {
      "inputs": [],
      "name": "renounceOwnership",
      "outputs": [],
      "stateMutability": "nonpayable",
      "type": "function"
    },
    {
      "inputs": [
        {
          "internalType": "address",
          "name": "newCore",
          "type": "address"
        }
      ],
      "name": "setCore",
      "outputs": [],
      "stateMutability": "nonpayable",
      "type": "function"
    },
    {
      "inputs": [],
      "name": "token",
      "outputs": [
        {
          "internalType": "address",
          "name": "",
          "type": "address"
        }
      ],
      "stateMutability": "view",
      "type": "function"
    },
    {
      "inputs": [
        {
          "internalType": "address",
          "name": "newOwner",
          "type": "address"
        }
      ],
      "name": "transferOwnership",
      "outputs": [],
      "stateMutability": "nonpayable",
      "type": "function"
    },
    {
      "inputs": [
        {
          "internalType": "address",
          "name": "recipient",
          "type": "address"
        },
        {
          "internalType": "uint256",
          "name": "",
          "type": "uint256"
        },
        {
          "internalType": "uint256",
          "name": "amount",
          "type": "uint256"
        }
      ],
      "name": "withdrawCreatorProfit",
      "outputs": [],
      "stateMutability": "nonpayable",
      "type": "function"
    }
  ],
  "transactionHash": "0x476c5a3607fb6988bb76c50197be308ef51af1387fe3774df5b87549eda750c2",
  "args": [
    "0x805bdf14f6F7a417ff1e7Fb2FeD99Afd600D3430",
    "0x7c5BF43B851c1dff1a4feE8dB225b87f2C223639"
  ],
  "numDeployments": 1,
  "solcInputHash": "d2e6eefcc90def8291c336b931a3a034",
  "bytecode": "0x60a03461011357601f61080a38819003918201601f19168301916001600160401b0383118484101761011757808492604094855283398101031261011357610052602061004b8361012b565b920161012b565b6001600160a01b03909116908115610100575f80546001600160a01b031981168417825560405193916001600160a01b03909116907f8be0079c531659141344cd1fd0a4f28419497f9722a3daafe3b4186f6b6457e09080a3600180556001600160a01b031680156100f1576080526106ca9081610140823960805181818160b2015281816101f30152818161039a0152818161040d015261047a0152f35b63d92e233d60e01b5f5260045ffd5b631e4fbdf760e01b5f525f60045260245ffd5b5f80fd5b634e487b7160e01b5f52604160045260245ffd5b51906001600160a01b03821682036101135756fe60806040526004361015610011575f80fd5b5f3560e01c80631782f97914610367578063715018a6146103235780637d11b2f2146102ef578063800096301461029a5780638da5cb5b14610273578063c1a5755c146100e5578063ce845d1d146101c8578063d3fde0a4146100e5578063f2f4eb26146101a0578063f2fde38b1461012e578063f9023eb1146100e55763fc0c546a1461009d575f80fd5b346100e1575f3660031901126100e1576040517f00000000000000000000000000000000000000000000000000000000000000006001600160a01b03168152602090f35b5f80fd5b346100e1576100f3366103d4565b6002549091506001600160a01b0316330361011f57610119916101146104d5565b610437565b60018055005b636e4b6fef60e11b5f5260045ffd5b346100e15760203660031901126100e1576101476103be565b61014f61053e565b6001600160a01b0316801561018d575f80546001600160a01b03198116831782556001600160a01b0316905f5160206106755f395f51905f529080a3005b631e4fbdf760e01b5f525f60045260245ffd5b346100e1575f3660031901126100e1576002546040516001600160a01b039091168152602090f35b346100e1575f3660031901126100e1576040516370a0823160e01b81523060048201526020816024817f00000000000000000000000000000000000000000000000000000000000000006001600160a01b03165afa8015610268575f90610235575b602090604051908152f35b506020813d602011610260575b8161024f6020938361049e565b810103126100e1576020905161022a565b3d9150610242565b6040513d5f823e3d90fd5b346100e1575f3660031901126100e1575f546040516001600160a01b039091168152602090f35b346100e15760203660031901126100e1576102b36103be565b6102bb61053e565b6001600160a01b031680156102e057600280546001600160a01b031916919091179055005b63d92e233d60e01b5f5260045ffd5b346100e1576102fd366103d4565b6002549091506001600160a01b0316330361011f576101199161031e6104d5565b6103fe565b346100e1575f3660031901126100e15761033b61053e565b5f80546001600160a01b0319811682556001600160a01b03165f5160206106755f395f51905f528280a3005b346100e157610375366103d4565b6002549091506001600160a01b0316330361011f57610119916103966104d5565b30907f00000000000000000000000000000000000000000000000000000000000000006104f5565b600435906001600160a01b03821682036100e157565b60609060031901126100e1576004356001600160a01b03811681036100e157906024359060443590565b908015610433576104319130907f00000000000000000000000000000000000000000000000000000000000000006104f5565b565b5050565b81156104335760405163a9059cbb60e01b60208201526001600160a01b0390911660248201526044808201929092529081526104319061047860648261049e565b7f0000000000000000000000000000000000000000000000000000000000000000610564565b601f909101601f19168101906001600160401b038211908210176104c157604052565b634e487b7160e01b5f52604160045260245ffd5b6002600154146104e6576002600155565b633ee5aeb560e01b5f5260045ffd5b6040516323b872dd60e01b60208201526001600160a01b0392831660248201529290911660448301526064808301939093529181526104319161053960848361049e565b610564565b5f546001600160a01b0316330361055157565b63118cdaa760e01b5f523360045260245ffd5b81516001600160a01b03909116915f91829160200182855af13d1561060a573d6001600160401b0381116104c1576105be91604051916105ae6020601f19601f840116018461049e565b82523d5f602084013e5b83610616565b80519081151591826105e6575b50506105d45750565b635274afe760e01b5f5260045260245ffd5b81925090602091810103126100e157602001518015908115036100e1575f806105cb565b6105be906060906105b8565b9061063a575080511561062b57805190602001fd5b630a12f52160e11b5f5260045ffd5b8151158061066b575b61064b575090565b639996b31560e01b5f9081526001600160a01b0391909116600452602490fd5b50803b1561064356fe8be0079c531659141344cd1fd0a4f28419497f9722a3daafe3b4186f6b6457e0a26469706673582212202caa7a93e6ed7875a07923c77fe75af31e0f71863b64cd8f97362020d924131564736f6c634300081e0033",
  "devdoc": {
    "errors": {
      "AddressEmptyCode(address)": [
        {
          "details": "There's no code at `target` (it is not a contract)."
        }
      ],
      "AddressInsufficientBalance(address)": [
        {
          "details": "The ETH balance of the account is not enough to perform the operation."
        }
      ],
      "FailedInnerCall()": [
        {
          "details": "A call to an address target failed. The target may have reverted."
        }
      ],
      "OwnableInvalidOwner(address)": [
        {
          "details": "The owner is not a valid owner account. (eg. `address(0)`)"
        }
      ],
      "OwnableUnauthorizedAccount(address)": [
        {
          "details": "The caller account is not authorized to perform an operation."
        }
      ],
      "ReentrancyGuardReentrantCall()": [
        {
          "details": "Unauthorized reentrant call."
        }
      ],
      "SafeERC20FailedOperation(address)": [
        {
          "details": "An operation with an ERC20 token failed."
        }
      ]
    },
    "kind": "dev",
    "methods": {
      "owner()": {
        "details": "Returns the address of the current owner."
      },
      "renounceOwnership()": {
        "details": "Leaves the contract without owner. It will not be possible to call `onlyOwner` functions. Can only be called by the current owner. NOTE: Renouncing ownership will leave the contract without an owner, thereby disabling any functionality that is only available to the owner."
      },
      "transferOwnership(address)": {
        "details": "Transfers ownership of the contract to a new account (`newOwner`). Can only be called by the current owner."
      }
    },
    "version": 1
  },
  "userdoc": {
    "kind": "user",
    "methods": {},
    "version": 1
  },
  "storageLayout": {
    "storage": [
      {
        "astId": 42543,
        "contract": "contracts/luckyScratch/LuckyScratchTreasury.sol:LuckyScratchTreasury",
        "label": "_owner",
        "offset": 0,
        "slot": "0",
        "type": "t_address"
      },
      {
        "astId": 45372,
        "contract": "contracts/luckyScratch/LuckyScratchTreasury.sol:LuckyScratchTreasury",
        "label": "_status",
        "offset": 0,
        "slot": "1",
        "type": "t_uint256"
      },
      {
        "astId": 52067,
        "contract": "contracts/luckyScratch/LuckyScratchTreasury.sol:LuckyScratchTreasury",
        "label": "core",
        "offset": 0,
        "slot": "2",
        "type": "t_address"
      }
    ],
    "types": {
      "t_address": {
        "encoding": "inplace",
        "label": "address",
        "numberOfBytes": "20"
      },
      "t_uint256": {
        "encoding": "inplace",
        "label": "uint256",
        "numberOfBytes": "32"
      }
    }
  }
}