{
  "address": "0x5E34DF42c41E65aB5cb9aDaE3848fcdc5E5c61d4",
  "abi": [
    {
      "inputs": [
        {
          "internalType": "address",
          "name": "admin",
          "type": "address"
        }
      ],
      "stateMutability": "nonpayable",
      "type": "constructor"
    },
    {
      "inputs": [],
      "name": "AccessControlBadConfirmation",
      "type": "error"
    },
    {
      "inputs": [
        {
          "internalType": "address",
          "name": "account",
          "type": "address"
        },
        {
          "internalType": "bytes32",
          "name": "neededRole",
          "type": "bytes32"
        }
      ],
      "name": "AccessControlUnauthorizedAccount",
      "type": "error"
    },
    {
      "inputs": [],
      "name": "DependencyNotConfigured",
      "type": "error"
    },
    {
      "inputs": [
        {
          "internalType": "uint32",
          "name": "ticketIndex",
          "type": "uint32"
        }
      ],
      "name": "DuplicateTicketIndex",
      "type": "error"
    },
    {
      "inputs": [],
      "name": "ECDSAInvalidSignature",
      "type": "error"
    },
    {
      "inputs": [
        {
          "internalType": "uint256",
          "name": "length",
          "type": "uint256"
        }
      ],
      "name": "ECDSAInvalidSignatureLength",
      "type": "error"
    },
    {
      "inputs": [
        {
          "internalType": "bytes32",
          "name": "s",
          "type": "bytes32"
        }
      ],
      "name": "ECDSAInvalidSignatureS",
      "type": "error"
    },
    {
      "inputs": [],
      "name": "EnforcedPause",
      "type": "error"
    },
    {
      "inputs": [],
      "name": "ExpectedPause",
      "type": "error"
    },
    {
      "inputs": [
        {
          "internalType": "uint256",
          "name": "deadline",
          "type": "uint256"
        },
        {
          "internalType": "uint256",
          "name": "currentTimestamp",
          "type": "uint256"
        }
      ],
      "name": "ExpiredGaslessRequest",
      "type": "error"
    },
    {
      "inputs": [
        {
          "internalType": "uint256",
          "name": "expectedChainId",
          "type": "uint256"
        },
        {
          "internalType": "uint256",
          "name": "receivedChainId",
          "type": "uint256"
        }
      ],
      "name": "InvalidChainId",
      "type": "error"
    },
    {
      "inputs": [],
      "name": "InvalidGaslessAction",
      "type": "error"
    },
    {
      "inputs": [
        {
          "internalType": "uint256",
          "name": "expectedNonce",
          "type": "uint256"
        },
        {
          "internalType": "uint256",
          "name": "receivedNonce",
          "type": "uint256"
        }
      ],
      "name": "InvalidGaslessNonce",
      "type": "error"
    },
    {
      "inputs": [
        {
          "internalType": "bytes32",
          "name": "expectedHash",
          "type": "bytes32"
        },
        {
          "internalType": "bytes32",
          "name": "receivedHash",
          "type": "bytes32"
        }
      ],
      "name": "InvalidGaslessParamsHash",
      "type": "error"
    },
    {
      "inputs": [],
      "name": "InvalidGaslessSignature",
      "type": "error"
    },
    {
      "inputs": [],
      "name": "InvalidKMSSignatures",
      "type": "error"
    },
    {
      "inputs": [],
      "name": "InvalidPoolConfig",
      "type": "error"
    },
    {
      "inputs": [],
      "name": "InvalidPrizeTable",
      "type": "error"
    },
    {
      "inputs": [],
      "name": "InvalidPrizeTiers",
      "type": "error"
    },
    {
      "inputs": [],
      "name": "InvalidQuantity",
      "type": "error"
    },
    {
      "inputs": [
        {
          "internalType": "bytes32",
          "name": "requestId",
          "type": "bytes32"
        }
      ],
      "name": "InvalidRequest",
      "type": "error"
    },
    {
      "inputs": [],
      "name": "InvalidShortString",
      "type": "error"
    },
    {
      "inputs": [
        {
          "internalType": "address",
          "name": "expectedTarget",
          "type": "address"
        },
        {
          "internalType": "address",
          "name": "receivedTarget",
          "type": "address"
        }
      ],
      "name": "InvalidTargetContract",
      "type": "error"
    },
    {
      "inputs": [
        {
          "internalType": "uint256",
          "name": "ticketId",
          "type": "uint256"
        }
      ],
      "name": "InvalidTicket",
      "type": "error"
    },
    {
      "inputs": [
        {
          "internalType": "address",
          "name": "caller",
          "type": "address"
        }
      ],
      "name": "InvalidVrfCaller",
      "type": "error"
    },
    {
      "inputs": [
        {
          "internalType": "uint256",
          "name": "ticketId",
          "type": "uint256"
        }
      ],
      "name": "NoReward",
      "type": "error"
    },
    {
      "inputs": [
        {
          "internalType": "uint256",
          "name": "poolId",
          "type": "uint256"
        },
        {
          "internalType": "address",
          "name": "caller",
          "type": "address"
        }
      ],
      "name": "NotPoolCreator",
      "type": "error"
    },
    {
      "inputs": [
        {
          "internalType": "uint256",
          "name": "ticketId",
          "type": "uint256"
        },
        {
          "internalType": "address",
          "name": "caller",
          "type": "address"
        }
      ],
      "name": "NotTicketOwner",
      "type": "error"
    },
    {
      "inputs": [
        {
          "internalType": "uint256",
          "name": "poolId",
          "type": "uint256"
        }
      ],
      "name": "PoolClosedForRolling",
      "type": "error"
    },
    {
      "inputs": [
        {
          "internalType": "uint256",
          "name": "poolId",
          "type": "uint256"
        }
      ],
      "name": "PoolNotFound",
      "type": "error"
    },
    {
      "inputs": [
        {
          "internalType": "uint256",
          "name": "poolId",
          "type": "uint256"
        }
      ],
      "name": "PoolNotLoopMode",
      "type": "error"
    },
    {
      "inputs": [
        {
          "internalType": "uint256",
          "name": "poolId",
          "type": "uint256"
        },
        {
          "internalType": "uint256",
          "name": "roundId",
          "type": "uint256"
        }
      ],
      "name": "PoolNotSettled",
      "type": "error"
    },
    {
      "inputs": [
        {
          "internalType": "uint256",
          "name": "poolId",
          "type": "uint256"
        }
      ],
      "name": "PoolPurchasesPaused",
      "type": "error"
    },
    {
      "inputs": [],
      "name": "ReentrancyGuardReentrantCall",
      "type": "error"
    },
    {
      "inputs": [
        {
          "internalType": "uint256",
          "name": "poolId",
          "type": "uint256"
        },
        {
          "internalType": "uint256",
          "name": "roundId",
          "type": "uint256"
        }
      ],
      "name": "RoundNotReady",
      "type": "error"
    },
    {
      "inputs": [
        {
          "internalType": "uint256",
          "name": "poolId",
          "type": "uint256"
        },
        {
          "internalType": "uint256",
          "name": "roundId",
          "type": "uint256"
        }
      ],
      "name": "SoldOut",
      "type": "error"
    },
    {
      "inputs": [
        {
          "internalType": "string",
          "name": "str",
          "type": "string"
        }
      ],
      "name": "StringTooLong",
      "type": "error"
    },
    {
      "inputs": [
        {
          "internalType": "uint32",
          "name": "ticketIndex",
          "type": "uint32"
        }
      ],
      "name": "TicketIndexAlreadySold",
      "type": "error"
    },
    {
      "inputs": [
        {
          "internalType": "uint32",
          "name": "ticketIndex",
          "type": "uint32"
        }
      ],
      "name": "TicketIndexOutOfBounds",
      "type": "error"
    },
    {
      "inputs": [
        {
          "internalType": "uint256",
          "name": "ticketId",
          "type": "uint256"
        }
      ],
      "name": "TicketNotClaimable",
      "type": "error"
    },
    {
      "inputs": [
        {
          "internalType": "uint256",
          "name": "ticketId",
          "type": "uint256"
        }
      ],
      "name": "TicketNotScratchable",
      "type": "error"
    },
    {
      "inputs": [],
      "name": "ZamaProtocolUnsupported",
      "type": "error"
    },
    {
      "inputs": [],
      "name": "ZeroAddress",
      "type": "error"
    },
    {
      "anonymous": false,
      "inputs": [
        {
          "indexed": true,
          "internalType": "uint256",
          "name": "poolId",
          "type": "uint256"
        },
        {
          "indexed": true,
          "internalType": "address",
          "name": "creator",
          "type": "address"
        },
        {
          "indexed": false,
          "internalType": "uint256",
          "name": "amount",
          "type": "uint256"
        }
      ],
      "name": "BondRefunded",
      "type": "event"
    },
    {
      "anonymous": false,
      "inputs": [
        {
          "indexed": true,
          "internalType": "uint256",
          "name": "poolId",
          "type": "uint256"
        },
        {
          "indexed": true,
          "internalType": "address",
          "name": "creator",
          "type": "address"
        },
        {
          "indexed": false,
          "internalType": "uint256",
          "name": "amount",
          "type": "uint256"
        }
      ],
      "name": "CreatorProfitWithdrawn",
      "type": "event"
    },
    {
      "anonymous": false,
      "inputs": [],
      "name": "EIP712DomainChanged",
      "type": "event"
    },
    {
      "anonymous": false,
      "inputs": [
        {
          "indexed": true,
          "internalType": "address",
          "name": "user",
          "type": "address"
        },
        {
          "indexed": false,
          "internalType": "enum GaslessAction",
          "name": "action",
          "type": "uint8"
        },
        {
          "indexed": false,
          "internalType": "bytes32",
          "name": "digest",
          "type": "bytes32"
        }
      ],
      "name": "GaslessExecuted",
      "type": "event"
    },
    {
      "anonymous": false,
      "inputs": [
        {
          "indexed": false,
          "internalType": "address",
          "name": "account",
          "type": "address"
        }
      ],
      "name": "Paused",
      "type": "event"
    },
    {
      "anonymous": false,
      "inputs": [
        {
          "indexed": true,
          "internalType": "uint256",
          "name": "poolId",
          "type": "uint256"
        }
      ],
      "name": "PoolClosed",
      "type": "event"
    },
    {
      "anonymous": false,
      "inputs": [
        {
          "indexed": true,
          "internalType": "uint256",
          "name": "poolId",
          "type": "uint256"
        },
        {
          "indexed": true,
          "internalType": "address",
          "name": "creator",
          "type": "address"
        },
        {
          "indexed": false,
          "internalType": "bool",
          "name": "protocolOwned",
          "type": "bool"
        }
      ],
      "name": "PoolCreated",
      "type": "event"
    },
    {
      "anonymous": false,
      "inputs": [
        {
          "indexed": true,
          "internalType": "uint256",
          "name": "poolId",
          "type": "uint256"
        },
        {
          "indexed": true,
          "internalType": "uint256",
          "name": "newRoundId",
          "type": "uint256"
        }
      ],
      "name": "PoolRolledToNextRound",
      "type": "event"
    },
    {
      "anonymous": false,
      "inputs": [
        {
          "indexed": true,
          "internalType": "uint256",
          "name": "poolId",
          "type": "uint256"
        },
        {
          "indexed": true,
          "internalType": "uint256",
          "name": "roundId",
          "type": "uint256"
        }
      ],
      "name": "PoolRoundInitialized",
      "type": "event"
    },
    {
      "anonymous": false,
      "inputs": [
        {
          "indexed": true,
          "internalType": "uint256",
          "name": "poolId",
          "type": "uint256"
        },
        {
          "indexed": true,
          "internalType": "uint256",
          "name": "roundId",
          "type": "uint256"
        },
        {
          "indexed": false,
          "internalType": "bytes32",
          "name": "requestId",
          "type": "bytes32"
        }
      ],
      "name": "PoolRoundRequested",
      "type": "event"
    },
    {
      "anonymous": false,
      "inputs": [
        {
          "indexed": false,
          "internalType": "bytes32[]",
          "name": "handlesList",
          "type": "bytes32[]"
        },
        {
          "indexed": false,
          "internalType": "bytes",
          "name": "abiEncodedCleartexts",
          "type": "bytes"
        }
      ],
      "name": "PublicDecryptionVerified",
      "type": "event"
    },
    {
      "anonymous": false,
      "inputs": [
        {
          "indexed": true,
          "internalType": "address",
          "name": "user",
          "type": "address"
        },
        {
          "indexed": true,
          "internalType": "uint256",
          "name": "ticketId",
          "type": "uint256"
        },
        {
          "indexed": true,
          "internalType": "uint256",
          "name": "poolId",
          "type": "uint256"
        },
        {
          "indexed": false,
          "internalType": "uint256",
          "name": "roundId",
          "type": "uint256"
        }
      ],
      "name": "RewardClaimed",
      "type": "event"
    },
    {
      "anonymous": false,
      "inputs": [
        {
          "indexed": true,
          "internalType": "bytes32",
          "name": "role",
          "type": "bytes32"
        },
        {
          "indexed": true,
          "internalType": "bytes32",
          "name": "previousAdminRole",
          "type": "bytes32"
        },
        {
          "indexed": true,
          "internalType": "bytes32",
          "name": "newAdminRole",
          "type": "bytes32"
        }
      ],
      "name": "RoleAdminChanged",
      "type": "event"
    },
    {
      "anonymous": false,
      "inputs": [
        {
          "indexed": true,
          "internalType": "bytes32",
          "name": "role",
          "type": "bytes32"
        },
        {
          "indexed": true,
          "internalType": "address",
          "name": "account",
          "type": "address"
        },
        {
          "indexed": true,
          "internalType": "address",
          "name": "sender",
          "type": "address"
        }
      ],
      "name": "RoleGranted",
      "type": "event"
    },
    {
      "anonymous": false,
      "inputs": [
        {
          "indexed": true,
          "internalType": "bytes32",
          "name": "role",
          "type": "bytes32"
        },
        {
          "indexed": true,
          "internalType": "address",
          "name": "account",
          "type": "address"
        },
        {
          "indexed": true,
          "internalType": "address",
          "name": "sender",
          "type": "address"
        }
      ],
      "name": "RoleRevoked",
      "type": "event"
    },
    {
      "anonymous": false,
      "inputs": [
        {
          "indexed": true,
          "internalType": "uint256",
          "name": "poolId",
          "type": "uint256"
        },
        {
          "indexed": true,
          "internalType": "uint256",
          "name": "roundId",
          "type": "uint256"
        }
      ],
      "name": "RoundSettled",
      "type": "event"
    },
    {
      "anonymous": false,
      "inputs": [
        {
          "indexed": true,
          "internalType": "address",
          "name": "user",
          "type": "address"
        },
        {
          "indexed": true,
          "internalType": "uint256",
          "name": "poolId",
          "type": "uint256"
        },
        {
          "indexed": true,
          "internalType": "uint256",
          "name": "ticketId",
          "type": "uint256"
        },
        {
          "indexed": false,
          "internalType": "uint32",
          "name": "ticketIndex",
          "type": "uint32"
        }
      ],
      "name": "TicketPurchased",
      "type": "event"
    },
    {
      "anonymous": false,
      "inputs": [
        {
          "indexed": true,
          "internalType": "address",
          "name": "user",
          "type": "address"
        },
        {
          "indexed": true,
          "internalType": "uint256",
          "name": "poolId",
          "type": "uint256"
        },
        {
          "indexed": true,
          "internalType": "uint256",
          "name": "roundId",
          "type": "uint256"
        },
        {
          "indexed": false,
          "internalType": "uint256",
          "name": "ticketId",
          "type": "uint256"
        },
        {
          "indexed": false,
          "internalType": "bool",
          "name": "revealAuthorized",
          "type": "bool"
        }
      ],
      "name": "TicketScratched",
      "type": "event"
    },
    {
      "anonymous": false,
      "inputs": [
        {
          "indexed": false,
          "internalType": "address",
          "name": "account",
          "type": "address"
        }
      ],
      "name": "Unpaused",
      "type": "event"
    },
    {
      "inputs": [],
      "name": "ADMIN_ROLE",
      "outputs": [
        {
          "internalType": "bytes32",
          "name": "",
          "type": "bytes32"
        }
      ],
      "stateMutability": "view",
      "type": "function"
    },
    {
      "inputs": [],
      "name": "DEFAULT_ADMIN_ROLE",
      "outputs": [
        {
          "internalType": "bytes32",
          "name": "",
          "type": "bytes32"
        }
      ],
      "stateMutability": "view",
      "type": "function"
    },
    {
      "inputs": [],
      "name": "RELAYER_ROLE",
      "outputs": [
        {
          "internalType": "bytes32",
          "name": "",
          "type": "bytes32"
        }
      ],
      "stateMutability": "view",
      "type": "function"
    },
    {
      "inputs": [
        {
          "internalType": "uint256[]",
          "name": "ticketIds",
          "type": "uint256[]"
        },
        {
          "internalType": "uint64[]",
          "name": "clearRewardAmounts",
          "type": "uint64[]"
        },
        {
          "internalType": "bytes[]",
          "name": "decryptionProofs",
          "type": "bytes[]"
        }
      ],
      "name": "batchClaimRewards",
      "outputs": [],
      "stateMutability": "nonpayable",
      "type": "function"
    },
    {
      "inputs": [
        {
          "internalType": "uint256[]",
          "name": "ticketIds",
          "type": "uint256[]"
        }
      ],
      "name": "batchScratch",
      "outputs": [],
      "stateMutability": "nonpayable",
      "type": "function"
    },
    {
      "inputs": [
        {
          "internalType": "uint256",
          "name": "ticketId",
          "type": "uint256"
        },
        {
          "internalType": "uint64",
          "name": "clearRewardAmount",
          "type": "uint64"
        },
        {
          "internalType": "bytes",
          "name": "decryptionProof",
          "type": "bytes"
        }
      ],
      "name": "claimReward",
      "outputs": [],
      "stateMutability": "nonpayable",
      "type": "function"
    },
    {
      "inputs": [
        {
          "internalType": "uint256",
          "name": "poolId",
          "type": "uint256"
        }
      ],
      "name": "claimableCreatorProfit",
      "outputs": [
        {
          "internalType": "uint256",
          "name": "",
          "type": "uint256"
        }
      ],
      "stateMutability": "view",
      "type": "function"
    },
    {
      "inputs": [
        {
          "internalType": "uint256",
          "name": "poolId",
          "type": "uint256"
        }
      ],
      "name": "closePool",
      "outputs": [],
      "stateMutability": "nonpayable",
      "type": "function"
    },
    {
      "inputs": [],
      "name": "confidentialProtocolId",
      "outputs": [
        {
          "internalType": "uint256",
          "name": "",
          "type": "uint256"
        }
      ],
      "stateMutability": "view",
      "type": "function"
    },
    {
      "inputs": [
        {
          "components": [
            {
              "internalType": "enum PoolMode",
              "name": "mode",
              "type": "uint8"
            },
            {
              "internalType": "address",
              "name": "creator",
              "type": "address"
            },
            {
              "internalType": "bool",
              "name": "protocolOwned",
              "type": "bool"
            },
            {
              "internalType": "uint32",
              "name": "poolInstanceGroupSize",
              "type": "uint32"
            },
            {
              "internalType": "uint64",
              "name": "ticketPrice",
              "type": "uint64"
            },
            {
              "internalType": "uint32",
              "name": "totalTicketsPerRound",
              "type": "uint32"
            },
            {
              "internalType": "uint64",
              "name": "totalPrizeBudget",
              "type": "uint64"
            },
            {
              "internalType": "uint16",
              "name": "feeBps",
              "type": "uint16"
            },
            {
              "internalType": "uint16",
              "name": "targetRtpBps",
              "type": "uint16"
            },
            {
              "internalType": "uint16",
              "name": "hitRateBps",
              "type": "uint16"
            },
            {
              "internalType": "uint64",
              "name": "maxPrize",
              "type": "uint64"
            },
            {
              "internalType": "bytes32",
              "name": "themeId",
              "type": "bytes32"
            },
            {
              "internalType": "bool",
              "name": "selectable",
              "type": "bool"
            }
          ],
          "internalType": "struct PoolConfig",
          "name": "config",
          "type": "tuple"
        },
        {
          "components": [
            {
              "internalType": "uint64",
              "name": "prizeAmount",
              "type": "uint64"
            },
            {
              "internalType": "uint32",
              "name": "count",
              "type": "uint32"
            }
          ],
          "internalType": "struct PrizeTierInput[]",
          "name": "tiers",
          "type": "tuple[]"
        }
      ],
      "name": "createPool",
      "outputs": [
        {
          "internalType": "uint256",
          "name": "poolId",
          "type": "uint256"
        }
      ],
      "stateMutability": "nonpayable",
      "type": "function"
    },
    {
      "inputs": [],
      "name": "eip712Domain",
      "outputs": [
        {
          "internalType": "bytes1",
          "name": "fields",
          "type": "bytes1"
        },
        {
          "internalType": "string",
          "name": "name",
          "type": "string"
        },
        {
          "internalType": "string",
          "name": "version",
          "type": "string"
        },
        {
          "internalType": "uint256",
          "name": "chainId",
          "type": "uint256"
        },
        {
          "internalType": "address",
          "name": "verifyingContract",
          "type": "address"
        },
        {
          "internalType": "bytes32",
          "name": "salt",
          "type": "bytes32"
        },
        {
          "internalType": "uint256[]",
          "name": "extensions",
          "type": "uint256[]"
        }
      ],
      "stateMutability": "view",
      "type": "function"
    },
    {
      "inputs": [
        {
          "components": [
            {
              "internalType": "address",
              "name": "user",
              "type": "address"
            },
            {
              "internalType": "enum GaslessAction",
              "name": "action",
              "type": "uint8"
            },
            {
              "internalType": "address",
              "name": "targetContract",
              "type": "address"
            },
            {
              "internalType": "bytes32",
              "name": "paramsHash",
              "type": "bytes32"
            },
            {
              "internalType": "uint256",
              "name": "nonce",
              "type": "uint256"
            },
            {
              "internalType": "uint256",
              "name": "deadline",
              "type": "uint256"
            },
            {
              "internalType": "uint256",
              "name": "chainId",
              "type": "uint256"
            }
          ],
          "internalType": "struct GaslessRequest",
          "name": "req",
          "type": "tuple"
        },
        {
          "internalType": "bytes",
          "name": "signature",
          "type": "bytes"
        },
        {
          "internalType": "uint256[]",
          "name": "ticketIds",
          "type": "uint256[]"
        }
      ],
      "name": "executeGaslessBatchScratch",
      "outputs": [],
      "stateMutability": "nonpayable",
      "type": "function"
    },
    {
      "inputs": [
        {
          "components": [
            {
              "internalType": "address",
              "name": "user",
              "type": "address"
            },
            {
              "internalType": "enum GaslessAction",
              "name": "action",
              "type": "uint8"
            },
            {
              "internalType": "address",
              "name": "targetContract",
              "type": "address"
            },
            {
              "internalType": "bytes32",
              "name": "paramsHash",
              "type": "bytes32"
            },
            {
              "internalType": "uint256",
              "name": "nonce",
              "type": "uint256"
            },
            {
              "internalType": "uint256",
              "name": "deadline",
              "type": "uint256"
            },
            {
              "internalType": "uint256",
              "name": "chainId",
              "type": "uint256"
            }
          ],
          "internalType": "struct GaslessRequest",
          "name": "req",
          "type": "tuple"
        },
        {
          "internalType": "bytes",
          "name": "signature",
          "type": "bytes"
        },
        {
          "internalType": "uint256",
          "name": "poolId",
          "type": "uint256"
        },
        {
          "internalType": "uint32",
          "name": "quantity",
          "type": "uint32"
        }
      ],
      "name": "executeGaslessPurchase",
      "outputs": [],
      "stateMutability": "nonpayable",
      "type": "function"
    },
    {
      "inputs": [
        {
          "components": [
            {
              "internalType": "address",
              "name": "user",
              "type": "address"
            },
            {
              "internalType": "enum GaslessAction",
              "name": "action",
              "type": "uint8"
            },
            {
              "internalType": "address",
              "name": "targetContract",
              "type": "address"
            },
            {
              "internalType": "bytes32",
              "name": "paramsHash",
              "type": "bytes32"
            },
            {
              "internalType": "uint256",
              "name": "nonce",
              "type": "uint256"
            },
            {
              "internalType": "uint256",
              "name": "deadline",
              "type": "uint256"
            },
            {
              "internalType": "uint256",
              "name": "chainId",
              "type": "uint256"
            }
          ],
          "internalType": "struct GaslessRequest",
          "name": "req",
          "type": "tuple"
        },
        {
          "internalType": "bytes",
          "name": "signature",
          "type": "bytes"
        },
        {
          "internalType": "uint256",
          "name": "poolId",
          "type": "uint256"
        },
        {
          "internalType": "uint32[]",
          "name": "ticketIndexes",
          "type": "uint32[]"
        }
      ],
      "name": "executeGaslessPurchaseSelection",
      "outputs": [],
      "stateMutability": "nonpayable",
      "type": "function"
    },
    {
      "inputs": [
        {
          "components": [
            {
              "internalType": "address",
              "name": "user",
              "type": "address"
            },
            {
              "internalType": "enum GaslessAction",
              "name": "action",
              "type": "uint8"
            },
            {
              "internalType": "address",
              "name": "targetContract",
              "type": "address"
            },
            {
              "internalType": "bytes32",
              "name": "paramsHash",
              "type": "bytes32"
            },
            {
              "internalType": "uint256",
              "name": "nonce",
              "type": "uint256"
            },
            {
              "internalType": "uint256",
              "name": "deadline",
              "type": "uint256"
            },
            {
              "internalType": "uint256",
              "name": "chainId",
              "type": "uint256"
            }
          ],
          "internalType": "struct GaslessRequest",
          "name": "req",
          "type": "tuple"
        },
        {
          "internalType": "bytes",
          "name": "signature",
          "type": "bytes"
        },
        {
          "internalType": "uint256",
          "name": "ticketId",
          "type": "uint256"
        }
      ],
      "name": "executeGaslessScratch",
      "outputs": [],
      "stateMutability": "nonpayable",
      "type": "function"
    },
    {
      "inputs": [
        {
          "internalType": "bytes32",
          "name": "requestId",
          "type": "bytes32"
        },
        {
          "internalType": "uint256",
          "name": "randomWord",
          "type": "uint256"
        }
      ],
      "name": "fulfillPoolRandomness",
      "outputs": [],
      "stateMutability": "nonpayable",
      "type": "function"
    },
    {
      "inputs": [
        {
          "internalType": "bytes32",
          "name": "role",
          "type": "bytes32"
        }
      ],
      "name": "getRoleAdmin",
      "outputs": [
        {
          "internalType": "bytes32",
          "name": "",
          "type": "bytes32"
        }
      ],
      "stateMutability": "view",
      "type": "function"
    },
    {
      "inputs": [
        {
          "internalType": "uint256",
          "name": "ticketId",
          "type": "uint256"
        }
      ],
      "name": "getTicketPrizeHandle",
      "outputs": [
        {
          "internalType": "euint64",
          "name": "",
          "type": "bytes32"
        }
      ],
      "stateMutability": "view",
      "type": "function"
    },
    {
      "inputs": [
        {
          "internalType": "uint256",
          "name": "ticketId",
          "type": "uint256"
        }
      ],
      "name": "getTicketRevealState",
      "outputs": [
        {
          "internalType": "enum TicketStatus",
          "name": "status",
          "type": "uint8"
        },
        {
          "internalType": "bool",
          "name": "revealAuthorized",
          "type": "bool"
        }
      ],
      "stateMutability": "view",
      "type": "function"
    },
    {
      "inputs": [
        {
          "internalType": "bytes32",
          "name": "role",
          "type": "bytes32"
        },
        {
          "internalType": "address",
          "name": "account",
          "type": "address"
        }
      ],
      "name": "grantRole",
      "outputs": [],
      "stateMutability": "nonpayable",
      "type": "function"
    },
    {
      "inputs": [
        {
          "internalType": "bytes32",
          "name": "role",
          "type": "bytes32"
        },
        {
          "internalType": "address",
          "name": "account",
          "type": "address"
        }
      ],
      "name": "hasRole",
      "outputs": [
        {
          "internalType": "bool",
          "name": "",
          "type": "bool"
        }
      ],
      "stateMutability": "view",
      "type": "function"
    },
    {
      "inputs": [],
      "name": "nextPoolId",
      "outputs": [
        {
          "internalType": "uint256",
          "name": "",
          "type": "uint256"
        }
      ],
      "stateMutability": "view",
      "type": "function"
    },
    {
      "inputs": [],
      "name": "nextTicketId",
      "outputs": [
        {
          "internalType": "uint256",
          "name": "",
          "type": "uint256"
        }
      ],
      "stateMutability": "view",
      "type": "function"
    },
    {
      "inputs": [
        {
          "internalType": "address",
          "name": "user",
          "type": "address"
        }
      ],
      "name": "nonces",
      "outputs": [
        {
          "internalType": "uint256",
          "name": "",
          "type": "uint256"
        }
      ],
      "stateMutability": "view",
      "type": "function"
    },
    {
      "inputs": [
        {
          "internalType": "uint256",
          "name": "ticketId",
          "type": "uint256"
        },
        {
          "internalType": "address",
          "name": "from",
          "type": "address"
        },
        {
          "internalType": "address",
          "name": "to",
          "type": "address"
        }
      ],
      "name": "onTicketTransfer",
      "outputs": [],
      "stateMutability": "nonpayable",
      "type": "function"
    },
    {
      "inputs": [
        {
          "internalType": "uint256",
          "name": "poolId",
          "type": "uint256"
        },
        {
          "internalType": "bool",
          "name": "paused",
          "type": "bool"
        }
      ],
      "name": "pausePool",
      "outputs": [],
      "stateMutability": "nonpayable",
      "type": "function"
    },
    {
      "inputs": [],
      "name": "pauseProtocol",
      "outputs": [],
      "stateMutability": "nonpayable",
      "type": "function"
    },
    {
      "inputs": [],
      "name": "paused",
      "outputs": [
        {
          "internalType": "bool",
          "name": "",
          "type": "bool"
        }
      ],
      "stateMutability": "view",
      "type": "function"
    },
    {
      "inputs": [
        {
          "internalType": "uint256",
          "name": "poolId",
          "type": "uint256"
        }
      ],
      "name": "poolAccounting",
      "outputs": [
        {
          "internalType": "uint64",
          "name": "lockedBond",
          "type": "uint64"
        },
        {
          "internalType": "uint64",
          "name": "reservedPrizeBudget",
          "type": "uint64"
        },
        {
          "internalType": "uint64",
          "name": "lockedNextRoundBudget",
          "type": "uint64"
        },
        {
          "internalType": "uint64",
          "name": "realizedRevenue",
          "type": "uint64"
        },
        {
          "internalType": "uint64",
          "name": "settledPrizeCost",
          "type": "uint64"
        },
        {
          "internalType": "uint64",
          "name": "settledProtocolCost",
          "type": "uint64"
        },
        {
          "internalType": "uint64",
          "name": "accruedPlatformFee",
          "type": "uint64"
        },
        {
          "internalType": "uint64",
          "name": "creatorProfitClaimed",
          "type": "uint64"
        }
      ],
      "stateMutability": "view",
      "type": "function"
    },
    {
      "inputs": [
        {
          "internalType": "uint256",
          "name": "poolId",
          "type": "uint256"
        }
      ],
      "name": "poolConfigs",
      "outputs": [
        {
          "internalType": "enum PoolMode",
          "name": "mode",
          "type": "uint8"
        },
        {
          "internalType": "address",
          "name": "creator",
          "type": "address"
        },
        {
          "internalType": "bool",
          "name": "protocolOwned",
          "type": "bool"
        },
        {
          "internalType": "uint32",
          "name": "poolInstanceGroupSize",
          "type": "uint32"
        },
        {
          "internalType": "uint64",
          "name": "ticketPrice",
          "type": "uint64"
        },
        {
          "internalType": "uint32",
          "name": "totalTicketsPerRound",
          "type": "uint32"
        },
        {
          "internalType": "uint64",
          "name": "totalPrizeBudget",
          "type": "uint64"
        },
        {
          "internalType": "uint16",
          "name": "feeBps",
          "type": "uint16"
        },
        {
          "internalType": "uint16",
          "name": "targetRtpBps",
          "type": "uint16"
        },
        {
          "internalType": "uint16",
          "name": "hitRateBps",
          "type": "uint16"
        },
        {
          "internalType": "uint64",
          "name": "maxPrize",
          "type": "uint64"
        },
        {
          "internalType": "bytes32",
          "name": "themeId",
          "type": "bytes32"
        },
        {
          "internalType": "bool",
          "name": "selectable",
          "type": "bool"
        }
      ],
      "stateMutability": "view",
      "type": "function"
    },
    {
      "inputs": [
        {
          "internalType": "uint256",
          "name": "poolId",
          "type": "uint256"
        }
      ],
      "name": "poolStates",
      "outputs": [
        {
          "internalType": "enum PoolStatus",
          "name": "status",
          "type": "uint8"
        },
        {
          "internalType": "uint32",
          "name": "currentRound",
          "type": "uint32"
        },
        {
          "internalType": "bool",
          "name": "closeRequested",
          "type": "bool"
        },
        {
          "internalType": "bool",
          "name": "vrfPending",
          "type": "bool"
        },
        {
          "internalType": "bool",
          "name": "initialized",
          "type": "bool"
        },
        {
          "internalType": "bool",
          "name": "paused",
          "type": "bool"
        }
      ],
      "stateMutability": "view",
      "type": "function"
    },
    {
      "inputs": [
        {
          "internalType": "uint256",
          "name": "poolId",
          "type": "uint256"
        },
        {
          "internalType": "uint32",
          "name": "quantity",
          "type": "uint32"
        }
      ],
      "name": "purchaseTickets",
      "outputs": [],
      "stateMutability": "nonpayable",
      "type": "function"
    },
    {
      "inputs": [
        {
          "internalType": "uint256",
          "name": "poolId",
          "type": "uint256"
        },
        {
          "internalType": "uint32[]",
          "name": "ticketIndexes",
          "type": "uint32[]"
        }
      ],
      "name": "purchaseTicketsWithSelection",
      "outputs": [],
      "stateMutability": "nonpayable",
      "type": "function"
    },
    {
      "inputs": [
        {
          "internalType": "uint256",
          "name": "poolId",
          "type": "uint256"
        }
      ],
      "name": "refundBond",
      "outputs": [],
      "stateMutability": "nonpayable",
      "type": "function"
    },
    {
      "inputs": [
        {
          "internalType": "bytes32",
          "name": "role",
          "type": "bytes32"
        },
        {
          "internalType": "address",
          "name": "callerConfirmation",
          "type": "address"
        }
      ],
      "name": "renounceRole",
      "outputs": [],
      "stateMutability": "nonpayable",
      "type": "function"
    },
    {
      "inputs": [
        {
          "internalType": "bytes32",
          "name": "role",
          "type": "bytes32"
        },
        {
          "internalType": "address",
          "name": "account",
          "type": "address"
        }
      ],
      "name": "revokeRole",
      "outputs": [],
      "stateMutability": "nonpayable",
      "type": "function"
    },
    {
      "inputs": [
        {
          "internalType": "uint256",
          "name": "poolId",
          "type": "uint256"
        }
      ],
      "name": "rollToNextRound",
      "outputs": [],
      "stateMutability": "nonpayable",
      "type": "function"
    },
    {
      "inputs": [
        {
          "internalType": "uint256",
          "name": "poolId",
          "type": "uint256"
        },
        {
          "internalType": "uint256",
          "name": "roundId",
          "type": "uint256"
        }
      ],
      "name": "roundStates",
      "outputs": [
        {
          "internalType": "enum RoundStatus",
          "name": "status",
          "type": "uint8"
        },
        {
          "internalType": "uint32",
          "name": "soldCount",
          "type": "uint32"
        },
        {
          "internalType": "uint32",
          "name": "claimedCount",
          "type": "uint32"
        },
        {
          "internalType": "uint32",
          "name": "scratchedCount",
          "type": "uint32"
        },
        {
          "internalType": "uint32",
          "name": "winClaimableCount",
          "type": "uint32"
        },
        {
          "internalType": "uint32",
          "name": "totalTickets",
          "type": "uint32"
        },
        {
          "internalType": "uint64",
          "name": "ticketPrice",
          "type": "uint64"
        },
        {
          "internalType": "uint64",
          "name": "roundPrizeBudget",
          "type": "uint64"
        },
        {
          "internalType": "bytes32",
          "name": "vrfRequestRef",
          "type": "bytes32"
        },
        {
          "internalType": "bytes32",
          "name": "shuffleRoot",
          "type": "bytes32"
        }
      ],
      "stateMutability": "view",
      "type": "function"
    },
    {
      "inputs": [
        {
          "internalType": "uint256",
          "name": "ticketId",
          "type": "uint256"
        }
      ],
      "name": "scratchTicket",
      "outputs": [],
      "stateMutability": "nonpayable",
      "type": "function"
    },
    {
      "inputs": [
        {
          "internalType": "address",
          "name": "relayer",
          "type": "address"
        },
        {
          "internalType": "bool",
          "name": "allowed",
          "type": "bool"
        }
      ],
      "name": "setRelayer",
      "outputs": [],
      "stateMutability": "nonpayable",
      "type": "function"
    },
    {
      "inputs": [
        {
          "internalType": "address",
          "name": "ticketAddress",
          "type": "address"
        }
      ],
      "name": "setTicket",
      "outputs": [],
      "stateMutability": "nonpayable",
      "type": "function"
    },
    {
      "inputs": [
        {
          "internalType": "address",
          "name": "treasuryAddress",
          "type": "address"
        }
      ],
      "name": "setTreasury",
      "outputs": [],
      "stateMutability": "nonpayable",
      "type": "function"
    },
    {
      "inputs": [
        {
          "internalType": "address",
          "name": "adapter",
          "type": "address"
        }
      ],
      "name": "setVrfAdapter",
      "outputs": [],
      "stateMutability": "nonpayable",
      "type": "function"
    },
    {
      "inputs": [
        {
          "internalType": "uint256",
          "name": "poolId",
          "type": "uint256"
        },
        {
          "internalType": "uint256",
          "name": "roundId",
          "type": "uint256"
        },
        {
          "internalType": "uint32",
          "name": "ticketIndex",
          "type": "uint32"
        }
      ],
      "name": "soldTicketSlots",
      "outputs": [
        {
          "internalType": "bool",
          "name": "",
          "type": "bool"
        }
      ],
      "stateMutability": "view",
      "type": "function"
    },
    {
      "inputs": [
        {
          "internalType": "bytes4",
          "name": "interfaceId",
          "type": "bytes4"
        }
      ],
      "name": "supportsInterface",
      "outputs": [
        {
          "internalType": "bool",
          "name": "",
          "type": "bool"
        }
      ],
      "stateMutability": "view",
      "type": "function"
    },
    {
      "inputs": [],
      "name": "ticket",
      "outputs": [
        {
          "internalType": "address",
          "name": "",
          "type": "address"
        }
      ],
      "stateMutability": "view",
      "type": "function"
    },
    {
      "inputs": [
        {
          "internalType": "uint256",
          "name": "ticketId",
          "type": "uint256"
        }
      ],
      "name": "tickets",
      "outputs": [
        {
          "internalType": "uint256",
          "name": "poolId",
          "type": "uint256"
        },
        {
          "internalType": "uint256",
          "name": "roundId",
          "type": "uint256"
        },
        {
          "internalType": "uint32",
          "name": "ticketIndex",
          "type": "uint32"
        },
        {
          "internalType": "enum TicketStatus",
          "name": "status",
          "type": "uint8"
        },
        {
          "internalType": "bool",
          "name": "transferredBeforeScratch",
          "type": "bool"
        }
      ],
      "stateMutability": "view",
      "type": "function"
    },
    {
      "inputs": [],
      "name": "treasury",
      "outputs": [
        {
          "internalType": "address",
          "name": "",
          "type": "address"
        }
      ],
      "stateMutability": "view",
      "type": "function"
    },
    {
      "inputs": [],
      "name": "unpauseProtocol",
      "outputs": [],
      "stateMutability": "nonpayable",
      "type": "function"
    },
    {
      "inputs": [],
      "name": "vrfAdapter",
      "outputs": [
        {
          "internalType": "address",
          "name": "",
          "type": "address"
        }
      ],
      "stateMutability": "view",
      "type": "function"
    },
    {
      "inputs": [
        {
          "internalType": "uint256",
          "name": "poolId",
          "type": "uint256"
        },
        {
          "internalType": "uint256",
          "name": "amount",
          "type": "uint256"
        }
      ],
      "name": "withdrawCreatorProfit",
      "outputs": [],
      "stateMutability": "nonpayable",
      "type": "function"
    }
  ],
  "transactionHash": "0xba4328b430aa16d63d726703989403fc5e1b06bb3a596718f083f4331b093d10",
  "args": [
    "0x805bdf14f6F7a417ff1e7Fb2FeD99Afd600D3430"
  ],
  "numDeployments": 1,
  "solcInputHash": "715ab6a932a2236de977a4fc31bb70d6",
  "bytecode": "0x61016080604052346103a1576020816160e0803803809161002082856103d4565b8339810103126103a157516001600160a01b0381168082036103a15760405161004a6040826103d4565b600c815260208101906b098eac6d6f2a6c6e4c2e8c6d60a31b8252604051916100746040846103d4565b600183526020830191603160f81b835261008d8161051e565b6101205261009a846106b9565b61014052519020918260e05251902080610100524660a0526040519060208201927f8b73c3c69bb8fe3d512ecc4cf759cc79239f7b179b0ffacaa9a75d522b39400f8452604083015260608201524660808201523060a082015260a0815261010360c0826103d4565b5190206080523060c052600160035560ff1960045416600455610124610500565b50466001036102b557610135610500565b50604051610142816103a5565b73ca2e8f1f656cd25c01f05d0b243ab1ecd4a8ffb6815273d82385dada1ae3e969447f20a3164f6213100e7560208201527377627828a55156b04ac0dc0eb30467f1a552bb0360408201525b80517f9e7b61f58c47dc699ac88507c4f5bb9f121c03808c5676a8078fe583e464970080546001600160a01b03199081166001600160a01b039384161790915560208301517f9e7b61f58c47dc699ac88507c4f5bb9f121c03808c5676a8078fe583e4649701805483169184169190911790556040909201517f9e7b61f58c47dc699ac88507c4f5bb9f121c03808c5676a8078fe583e46497028054909316911617905560016007819055600855156102a6578061024e610254926103f7565b5061046d565b5060405161588e90816107f28239608051816154e7015260a051816155a4015260c051816154b1015260e051816155360152610100518161555c01526101205181611979015261014051816119a30152f35b63d92e233d60e01b5f5260045ffd5b4662aa36a703610324576102c7610500565b506040516102d4816103a5565b73f0ffdc93b7e186bc2f8cb3daa75d86d1930a433d81527392c920834ec8941d2c77d188936e1f7a6f49c127602082015273be0e383937d564d7ff0bc3b46c51f0bf8d5c311a604082015261018e565b46617a690361039257610335610500565b50604051610342816103a5565b7350157cffd6bbfa2dece204a89ec419c23ef5755d815273e3a9105a3a932253a70f126eb1e3b589c643dd24602082015273be0e383937d564d7ff0bc3b46c51f0bf8d5c311a604082015261018e565b6373cac13b60e01b5f5260045ffd5b5f80fd5b606081019081106001600160401b038211176103c057604052565b634e487b7160e01b5f52604160045260245ffd5b601f909101601f19168101906001600160401b038211908210176103c057604052565b6001600160a01b0381165f9081525f5160206160c05f395f51905f52602052604090205460ff16610468576001600160a01b03165f8181525f5160206160c05f395f51905f5260205260408120805460ff191660011790553391905f5160206160805f395f51905f528180a4600190565b505f90565b6001600160a01b0381165f9081525f5160206160a05f395f51905f52602052604090205460ff16610468576001600160a01b03165f8181525f5160206160a05f395f51905f5260205260408120805460ff191660011790553391907fa49807205ce4d355092ef5a8a18f56e8913cf4a201fbe287825b095693c21775905f5160206160805f395f51905f529080a4600190565b6040519061050d826103a5565b5f6040838281528260208201520152565b908151602081105f14610598575090601f815111610558576020815191015160208210610549571790565b5f198260200360031b1b161790565b604460209160405192839163305a27a960e01b83528160048401528051918291826024860152018484015e5f828201840152601f01601f19168101030190fd5b6001600160401b0381116103c057600154600181811c911680156106af575b602082101461069b57601f8111610668575b50602092601f821160011461060757928192935f926105fc575b50508160011b915f199060031b1c19161760015560ff90565b015190505f806105e3565b601f1982169360015f52805f20915f5b8681106106505750836001959610610638575b505050811b0160015560ff90565b01515f1960f88460031b161c191690555f808061062a565b91926020600181928685015181550194019201610617565b60015f52601f60205f20910160051c810190601f830160051c015b81811061069057506105c9565b5f8155600101610683565b634e487b7160e01b5f52602260045260245ffd5b90607f16906105b7565b908151602081105f146106e4575090601f815111610558576020815191015160208210610549571790565b6001600160401b0381116103c057600254600181811c911680156107e7575b602082101461069b57601f81116107b4575b50602092601f821160011461075357928192935f92610748575b50508160011b915f199060031b1c19161760025560ff90565b015190505f8061072f565b601f1982169360025f52805f20915f5b86811061079c5750836001959610610784575b505050811b0160025560ff90565b01515f1960f88460031b161c191690555f8080610776565b91926020600181928685015181550194019201610763565b60025f52601f60205f20910160051c810190601f830160051c015b8181106107dc5750610715565b5f81556001016107cf565b90607f169061070356fe6080806040526004361015610012575f80fd5b5f905f3560e01c90816301ffc9a714612c0e575080630f5ba21714612b1d57806312575a8914612a9257806318e5613114612a755780631c65c78b14612a205780631ecc90851461299a578063248a9ca31461297c578063291700c21461295d5780632f2ff15d1461292c57806336568abe146128e857806337de615f146127fd57806338bca726146127905780633e63b65c1461275c578063400496cb1461272257806345abd0ae146126c75780634d40ed7b146123385780634d6216c3146122bc57806350b447121461225557806359c55429146120b75780635c975abb146120945780636031a52f1461207657806361d027b31461204957806362b51d8814611d4c57806364747a9014611d0d578063649452e914611ba15780636cc25db714611b7857806375b238fc14611b505780637bccf56114611ae25780637ecebe0014611aa957806380737a8f14611a5b57806384b0196e1461195f57806386ac952b146117ba5780638927b0301461179f5780639013c935146114c057806391d148541461147757806391e4981e146113b3578063926d7d7f1461138b57806399f8f1a114611362578063a217fddf14611346578063a59bb4bf146109b2578063c3520896146105e0578063d547741f146105a9578063dbf624891461054e578063de86ea4f14610506578063e601d280146104cb578063e7b3820314610434578063ecd8dc3a146103d1578063f0f4426014610369578063f3e2b0b414610335578063f5f60c07146102b95763f93b6be51461024f575f80fd5b346102b657806003193601126102b657610267613aa4565b60045460ff8116156102a75760ff19166004557f5db9ee0a495bf2e6ff9c91a7834c1ba4fdd244a5e8aa4e537bd38aeae4b073aa6020604051338152a180f35b638dfc202b60e01b8252600482fd5b80fd5b50346102b65760603660031901126102b6576024356001600160401b038116810361033157604435906001600160401b03821161032d5761031b610304610325933690600401612c9c565b61030c613f33565b610314613f53565b36916138d1565b90600435336147b8565b600160035580f35b8280fd5b5080fd5b50346102b65760203660031901126102b657604060209160043561035881614c59565b508152601083522054604051908152f35b50346102b65760203660031901126102b657610383612c70565b61038b613aa4565b6001600160a01b038116156103c25760048054610100600160a81b03191660089290921b610100600160a81b031691909117905580f35b63d92e233d60e01b8252600482fd5b50346102b65760403660031901126102b6576103eb612c70565b6103f3612c61565b6103fb613aa4565b6001600160a01b03821615610425571561041c5761041890613c12565b5080f35b61041890613d0c565b63d92e233d60e01b8352600483fd5b50346102b65760203660031901126102b6576004356001600160401b03811161033157610465903690600401612cc9565b61046d613f33565b610475613f53565b801580156104c1575b6104b257825b8181106104945783600160035580f35b806104ac6104a5600193858761386a565b3533613f8d565b01610484565b63524f409b60e01b8352600483fd5b506040811161047e565b50346102b65760203660031901126102b6576104fe60406020926004356104f181613a3e565b508152600b845220614cf8565b604051908152f35b50346102b65760203660031901126102b657610520612c70565b610528613aa4565b6001600160a01b031680156103c257600680546001600160a01b03191691909117905580f35b50346102b657806003193601126102b657610567613aa4565b61056f613f53565b600160ff1960045416176004557f62e78cea01bee320cd4e420270b5ea74000d11b0c9f74754ebdbfc544b05a2586020604051338152a180f35b50346102b65760403660031901126102b6576104186004356105c9612c86565b906105db6105d682612d4a565b613b36565b613d8a565b50346102b657366003190161012081126103315760e0136102b65760e4356001600160401b0381116103315761061a903690600401612c9c565b90610104356001600160401b0381116109ae5761063b903690600401612cc9565b91610644613f33565b61064c613f53565b610654613aed565b821580156109a4575b6109955760405160208101906003825260408082015284606082015260018060fb1b03851161096a576106a76080828760051b80888484013781010301601f198101835282612da5565b51902060046024351015610991576106c0602435612d40565b60036024350361096e576044356001600160a01b03811614158061096a57306044356001600160a01b0316036109495760c4354681036109335760a4359342851061091b576064359380850361090457506004356001600160a01b0381169003610900576004356001600160a01b031689526012602052604089205494608435938685036108e957610753602435612d40565b6108e55761080a94610801946107fb946042936040519260208401945f5160206156f95f395f51905f52865260018060a01b0360043516604086015260ff60243516606086015260018060a01b0360443516608086015260a085015260c084015260e083015261010082015261010081526107d061012082612da5565b5190206107db6154ae565b906040519161190160f01b835260028301526022820152209736916138d1565b866155ca565b90929192615604565b6001600160a01b0360043581169116036108d657600181018091116108c2576004356001600160a01b0316855260126020526040852055835b82811061089c57505050610855613820565b6004602435101561032d5760405f5160206157b95f395f51905f529181519361087f602435612d40565b602435855260208501526001600160a01b031692a2600160035580f35b6001906108bc6108aa613820565b6108b583878761386a565b3590613f8d565b01610843565b634e487b7160e01b85526011600452602485fd5b63bdafc76160e01b8552600485fd5b8980fd5b60448b868963d827fc9d60e01b8352600452602452fd5b8880fd5b63519553ab60e01b8a526004526024849052604489fd5b630a30881f60e41b8952600485905242602452604489fd5b639fba672f60e01b885246600452602452604487fd5b630dbca52160e41b875230600452604480356001600160a01b031660245287fd5b8680fd5b63c713096f60e01b8652600486fd5b634e487b7160e01b5f52602160045260245ffd5b8580fd5b63524f409b60e01b8552600485fd5b506040831161065d565b8380fd5b50346102b65736600319016101c08112610331576101a0136102b6576101a435906001600160401b0382116102b657366023830112156102b6576004820135906001600160401b0382116102b6576024830192602436918460061b0101116102b657610a1c613f33565b610a24613f53565b6005546001600160a01b0316158015611330575b801561131d575b61130e578115611144576001600160401b03610a5961387a565b161580156112f9575b80156112e1575b6111d75763ffffffff610a7a613972565b16156111d7576302faf0806001600160401b03610a95613890565b161080156112c4575b6111d7576001600160401b03610ab26138a6565b16158015611299575b6111d7576001600160401b03610acf61387a565b16620f4240811490811561128c575b811561127f575b8115611272575b8115611265575b8115611257575b50156111d75761032061ffff610b0e6139b9565b16036111d7576107d061ffff610b226139ca565b16108015611241575b6111d75761138861ffff610b3d6139dc565b1610801561122b575b6111d7576001600160401b03610b5a6138a6565b166127108102908082046127101490151715611217576001600160401b03610b80613890565b1690610bb8820291808304610bb8149015171561113057116111d7576001600160a01b03610bac613836565b1661120a57335b6001600160a01b031680156111fb57610bca613950565b156111e657505f5160206157f95f395f51905f52815260208181526040808320335f908152925290205460ff16156111d7575b610c0561395f565b610c0d613890565b90828391845b86888183106111665750505063ffffffff16149182611153575b505015611144576007549160018301808411611130576007558282526009602052604082209060043560028110156109ae5760ff8019845416911617825560018060a01b03610c7a613836565b1661112357335b8254610100600160a81b03191660089190911b610100600160a81b0316178255610ca9613950565b1515825463ffffffff60b01b610cbd613972565b60b01b169160ff60a81b9060a81b169064ffffffffff60a81b191617178255610ce461387a565b6001830180546001600160401b0319166001600160401b0390921691909117815594610d17610d1161395f565b87613996565b610d1f613890565b86549061ffff60a01b610d306139b9565b60a01b1661ffff60b01b610d426139dc565b60b01b169161ffff60c01b610d556139ca565b60c01b16600160601b600160a01b0360609290921b91909116600160601b600160d01b031994909416939093171717178655610d8f6138a6565b6002840180546001600160401b0319166001600160401b039092169190911790556101643560038401556101843580151581036110795780610de19150600485019060ff801983541691151516179055565b835b82811061107d5750508454610e04915060601c6001600160401b0316614d83565b6001600160401b038116610fd4575b50828252600a60209081526040808420805467ffff00ffffffffff19166601000000000100179055848452600c825280842060018552909152808320805460ff191681558554909591610e6e9163ffffffff911c16866133fb565b8054610e83906001600160401b03168661341e565b54600185810180546001600160401b03191660609390931c6001600160401b0316929092179091556006546040516307d4f3c160e21b81526004810186905260248101929092529092906020908490604490829085906001600160a01b03165af1928315610fc7578193610f8e575b5060208385935f5160206158195f395f51905f52936001966002859a01558660405191610f1e83612d5b565b8783526040868401918383528681526013885220925183555191015554847fcdfacd7572fcbb7ef71a943ea6db6f447f44346139c6fe2499231b6b8dcc2d85846040519360ff8160a81c1615158552898060a01b039060081c1693a3604051908152a36001600355604051908152f35b92506020833d602011610fbf575b81610fa960209383612da5565b81010312610fbb579151916020610ef2565b5f80fd5b3d9150610f9c565b50604051903d90823e3d90fd5b838352600b6020526040832080546001600160401b0319166001600160401b0383161790556004548254600891821c6001600160a01b03908116929190911c16813b156110795791849186836110419560405196879586948593633e88d97960e11b855260048501613a13565b03925af1801561106e57908391611059575b50610e13565b8161106391612da5565b61033157815f611053565b6040513d85823e3d90fd5b8480fd5b858552600d602052604085206110948285856139ee565b81549091600160401b82101561110f57906110b4916001820181556139fe565b9190916110fb57600192916110f5916110ef906020906001600160401b036110db826138bd565b16878060401b031985541617845501613985565b90613996565b01610de3565b634e487b7160e01b87526004879052602487fd5b634e487b7160e01b88526041600452602488fd5b61112b613836565b610c81565b634e487b7160e01b83526011600452602483fd5b631973ad8b60e01b8152600490fd5b6001600160401b03161490505f80610c2d565b946111ca8663ffffffff6111c36020611195886111a2899c86839f8661119560019f6111d09f61119b946139ee565b01613985565b16906133d2565b9b8a8060401b036111bc6111b784848b6139ee565b6138bd565b16966139ee565b1690614189565b906133d2565b9301610c13565b634d4a4b9160e11b8152600490fd5b3314610bfd57634d4a4b9160e11b8152600490fd5b634d4a4b9160e11b8252600482fd5b611212613836565b610bb3565b634e487b7160e01b82526011600452602482fd5b5061251c61ffff61123a6139dc565b1611610b46565b50611b5861ffff6112506139ca565b1611610b2b565b6301312d009150145f610afa565b62e4e1c081149150610af3565b6298968081149150610aec565b624c4b4081149150610ae5565b621e848081149150610ade565b506112a26138a6565b6001600160401b036112b2613890565b166001600160401b0390911611610abb565b5063773594006001600160401b036112da613890565b1611610a9e565b506001600160401b036112f2613890565b1615610a69565b5063ffffffff61130761395f565b1615610a62565b637079195b60e01b8152600490fd5b506006546001600160a01b031615610a3f565b5060045460081c6001600160a01b031615610a38565b50346102b657806003193601126102b657602090604051908152f35b50346102b657806003193601126102b6576006546040516001600160a01b039091168152602090f35b50346102b657806003193601126102b65760206040515f5160206157795f395f51905f528152f35b50346102b6576040610140916113c836612d2a565b908252600c60205282822090825260205220805460ff81169160018060401b0360018201541660036002830154920154926040519461140681612d40565b855263ffffffff8160081c16602086015263ffffffff8160281c16604086015263ffffffff8160481c16606086015263ffffffff8160681c16608086015263ffffffff8160881c1660a086015260018060401b039060a81c1660c085015260e0840152610100830152610120820152f35b50346102b65760403660031901126102b6576040611493612c86565b91600435815280602052209060018060a01b03165f52602052602060ff60405f2054166040519015158152f35b50346102b657366003190161012081126103315760e0136102b65760e4356001600160401b038111610331576114fa903690600401612c9c565b6101043590611507613f33565b61150f613f53565b611517613aed565b60405160208101906002825283604082015260408152611538606082612da5565b51902091602435936004851093841561096a5761155486612d40565b6002860361179057604435916001600160a01b038316918284141590816108e5573084036117785760c435904682036117605760a43590428210611748576064359080820361173357506004356001600160a01b038116969095908d8888036102b6576040908981526012602052205498608435968a880361171b578f8f6115db90612d40565b50611717578d61167796610801968b99611671976042968c965060ff6040519660208801985f5160206156f95f395f51905f528a526040890152166060870152608086015260a085015260c084015260e0830152610100820152610100815261164661012082612da5565b5190206116516154ae565b906040519161190160f01b835260028301526022820152209936916138d1565b886155ca565b6001600160a01b03160361170857600183018093116116f457508652601260205260408620556116ae906116a9613820565b613f8d565b6116b6613820565b91156109ae575f5160206157b95f395f51905f52916040918251946116da81612d40565b855260208501526001600160a01b031692a2600160035580f35b634e487b7160e01b88526011600452602488fd5b63bdafc76160e01b8852600488fd5b8e80fd5b5060448f888c63d827fc9d60e01b8352600452602452fd5b63519553ab60e01b8d5260045260245260448bfd5b630a30881f60e41b8c5260048290524260245260448cfd5b639fba672f60e01b8b5246600452602482905260448bfd5b630dbca52160e41b8a5230600452602484905260448afd5b63c713096f60e01b8752600487fd5b50346102b657806003193601126102b65760206104fe614d54565b50346102b6576117c936612d2a565b906117d2613f33565b6001600160a01b036117e382613a3e565b5460081c1633141580611931575b61191b5781156104b257808352600b6020526040832061181081614cf8565b831161190c57600101805461183d9190611837906001600160401b0386169060c01c612e64565b9061392d565b6004548184526009602052604084205484916001600160a01b03600892831c8116929190911c16803b1561032d57848391858361189195604051968795869485936330695d5760e21b85526004850161384c565b03925af18015611901576118ec575b5081905260096020527f3d52a11e31f5e723eb93de922c6dcf04adf16dd0d4b41cb6a7ac64ba4d9deafc602060018060a01b03604086205460081c1693604051908152a3600160035580f35b816118f691612da5565b61032d57825f6118a0565b6040513d84823e3d90fd5b63524f409b60e01b8452600484fd5b63ce9d7ce760e01b835260045233602452604482fd5b505f5160206157f95f395f51905f52835260208381526040808520335f908152925290205460ff16156117f1565b50346102b657806003193601126102b6576119ff9061199d7f00000000000000000000000000000000000000000000000000000000000000006152b8565b906119c77f00000000000000000000000000000000000000000000000000000000000000006153de565b906020611a0d604051936119db8386612da5565b8385525f368137604051968796600f60f81b885260e08589015260e0880190612d06565b908682036040880152612d06565b904660608601523060808601528260a086015284820360c08601528080855193848152019401925b828110611a4457505050500390f35b835185528695509381019392810192600101611a35565b50346102b65760403660031901126102b6576024356001600160401b03811161033157611a8f610325913690600401612cc9565b90611a98613f33565b611aa0613f53565b6004353361419c565b50346102b65760203660031901126102b6576020906040906001600160a01b03611ad1612c70565b168152601283522054604051908152f35b50346102b65760203660031901126102b65760043590611b0182614c59565b9181526010602052606060408220920151906003821015611b3c575060ff6001604093015416611b3383518093612cf9565b15156020820152f35b634e487b7160e01b81526021600452602490fd5b50346102b657806003193601126102b65760206040515f5160206157f95f395f51905f528152f35b50346102b657806003193601126102b6576005546040516001600160a01b039091168152602090f35b50346102b65760603660031901126102b6576004356001600160401b03811161033157611bd2903690600401612cc9565b6024356001600160401b0381116109ae57611bf1903690600401612cc9565b90926044356001600160401b03811161099157611c12903690600401612cc9565b92611c1b613f33565b611c23613f53565b84158015611d03575b611cea57808514801590611cf9575b611cea57919336829003601e19019290875b818110611c5d5788600160035580f35b611c6881838961386a565b3590611c786111b782868c61386a565b87821015611cd6578160051b86013587811215611cd2578601803593906001600160401b038511611cce57602001918436038313611cce57611cc1611cc89360019636916138d1565b91336147b8565b01611c4d565b8c80fd5b8b80fd5b634e487b7160e01b8b52603260045260248bfd5b63524f409b60e01b8752600487fd5b5083851415611c3b565b5060408511611c2c565b50346102b65760403660031901126102b65760243563ffffffff811681036103315761032590611d3b613f33565b611d43613f53565b60043533614507565b50346102b657366003190161014081126103315760e0136102b65760e4356001600160401b03811161033157611d86903690600401612c9c565b90610124359063ffffffff821680830361107957611da2613f33565b611daa613f53565b611db2613aed565b6040516020810191868352610104356040830152606082015260608152611dda608082612da5565b519020906004602435101561107957611df285612d40565b611dfd602435612d40565b60243561203a576044356001600160a01b0381161415918261099157306044356001600160a01b031603612019574660c43503612000574260a43510611fe7578060643503611fcf57506004356001600160a01b0381169003611079576004356001600160a01b031685526012602052604085205491608435839003611fb557611e88602435612d40565b61107957610801611f38611f3e92604260405160208101905f5160206156f95f395f51905f52825260018060a01b0360043516604082015260ff60243516606082015260018060a01b0360443516608082015260643560a082015260843560c082015260a43560e082015260c4356101008201526101008152611f0d61012082612da5565b519020611f186154ae565b906040519161190160f01b835260028301526022820152209636916138d1565b856155ca565b6001600160a01b036004358116911603611fa65760018101809111611f92576004356001600160a01b0316845260126020526040842055611f8a9061010435611f85613820565b614507565b610855613820565b634e487b7160e01b84526011600452602484fd5b63bdafc76160e01b8452600484fd5b63d827fc9d60e01b86526004839052608435602452604486fd5b63519553ab60e01b8652600452606435602452604485fd5b630a30881f60e41b865260a43560045242602452604486fd5b639fba672f60e01b86524660045260c435602452604486fd5b630dbca52160e41b865230600452604480356001600160a01b031660245286fd5b63c713096f60e01b8552600485fd5b50346102b657806003193601126102b65760045460405160089190911c6001600160a01b03168152602090f35b50346102b657806003193601126102b6576020600854604051908152f35b50346102b657806003193601126102b657602060ff600454166040519015158152f35b5034610fbb576020366003190112610fbb576004356120d4613f33565b6001600160a01b036120e582613a3e565b5460081c1633141580612230575b61221a5760ff61210282613a77565b5416600581101561097d57600403612208575f818152600b6020908152604080832080546001600160401b0319811690915560045460099093529220546001600160401b0390921692916001600160a01b03600891821c81169290911c16803b15610fbb57835f91848361218d956040519687958694859363f9023eb160e01b85526004850161384c565b03925af180156121fd576121e8575b5080835260096020527fbdf8a357b4d9b7d76d72cb621569cdc42a35b8a37022fc780ef2effcaae654ba602060018060a01b03604086205460081c1693604051908152a3600160035580f35b6121f59193505f90612da5565b5f915f61219c565b6040513d5f823e3d90fd5b636728a05160e01b5f5260045260245ffd5b63ce9d7ce760e01b5f526004523360245260445ffd5b50335f9081525f5160206157395f395f51905f52602052604090205460ff16156120f3565b34610fbb576020366003190112610fbb576004355f52600f60205260a060405f2060ff8154916002600182015491015490604051938452602084015263ffffffff811660408401526122af60608401838360201c16612cf9565b60281c1615156080820152f35b34610fbb576020366003190112610fbb576004355f52600a60205260405f205460ff811660405190600581101561097d5760c09260ff91835263ffffffff8160081c166020840152818160281c1615156040840152818160301c1615156060840152818160381c161515608084015260401c16151560a0820152f35b34610fbb5736600319016101408112610fbb5760e013610fbb5760e4356001600160401b038111610fbb57612371903690600401612c9c565b9061010435610124356001600160401b038111610fbb57612396903690600401612cc9565b9161239f613f33565b6123a7613f53565b6123af613aed565b60405160208101908460808201600184528460408401526060808401525260a081018185915f5b88811061269e57506123f1925003601f198101835282612da5565b5190209360046024351015610fbb5761240b602435612d40565b60016024350361268f576044356001600160a01b03811614159485610fbb57306044356001600160a01b03160361266c574660c43503612653574260a4351061263a57806064350361262257506004356001600160a01b0381169003610fbb576004356001600160a01b03165f90815260126020526040902054946084358690036126095761249b602435612d40565b610fbb5761080161254b61255192604260405160208101905f5160206156f95f395f51905f52825260018060a01b0360043516604082015260ff60243516606082015260018060a01b0360443516608082015260643560a082015260843560c082015260a43560e082015260c435610100820152610100815261252061012082612da5565b51902061252b6154ae565b906040519161190160f01b835260028301526022820152209836916138d1565b876155ca565b6001600160a01b0360043581169116036125fa57600184018094116125e6576125989360018060a01b03600435165f52601260205260405f2055612593613820565b61419c565b6125a0613820565b60046024351015610fbb5760405f5160206157b95f395f51905f52918151936125ca602435612d40565b602435855260208501526001600160a01b031692a26001600355005b634e487b7160e01b5f52601160045260245ffd5b63bdafc76160e01b5f5260045ffd5b8563d827fc9d60e01b5f5260045260843560245260445ffd5b63519553ab60e01b5f5260045260643560245260445ffd5b630a30881f60e41b5f5260a4356004524260245260445ffd5b639fba672f60e01b5f524660045260c43560245260445ffd5b630dbca52160e41b5f90815230600452604480356001600160a01b031660245290fd5b63c713096f60e01b5f5260045ffd5b915082359063ffffffff8216809203610fbb5790815260209283019284929101906001016123d6565b34610fbb576060366003190112610fbb5760443563ffffffff81168103610fbb576004355f52601460205260405f206024355f5260205263ffffffff60405f2091165f52602052602060ff60405f2054166040519015158152f35b34610fbb576060366003190112610fbb5761273b612c86565b6044356001600160a01b0381168103610fbb5761275a9160043561378b565b005b34610fbb576020366003190112610fbb57612775613f33565b61277d613f53565b61278960043533613f8d565b6001600355005b34610fbb576020366003190112610fbb576004356127ac613f33565b6001600160a01b036127bd82613a3e565b5460081c16331415806127d8575b61221a5761278990613447565b50335f9081525f5160206157395f395f51905f52602052604090205460ff16156127cb565b34610fbb576020366003190112610fbb576004356001600160a01b0361282282613a3e565b5460081c16331415806128c3575b61221a5761283d81613a77565b600160281b60ff60281b198254161790818155825f52600c60205260405f2063ffffffff8360081c165f5260205260405f2091825463ffffffff8160081c16159182156128b4575b50811561289d575b5061289457005b61275a92613df7565b6003915060ff166128ad81612d40565b148461288d565b60381c60ff1615915085612885565b50335f9081525f5160206157395f395f51905f52602052604090205460ff1615612830565b34610fbb576040366003190112610fbb57612901612c86565b336001600160a01b0382160361291d5761275a90600435613d8a565b63334bd91960e11b5f5260045ffd5b34610fbb576040366003190112610fbb5761275a60043561294b612c86565b906129586105d682612d4a565b613c97565b34610fbb576040366003190112610fbb5761275a602435600435612ec9565b34610fbb576020366003190112610fbb5760206104fe600435612d4a565b34610fbb576020366003190112610fbb576004355f908152600b6020908152604091829020805460019091015483516001600160401b03808416825283861c811694820194909452608083811c85168287015260c093841c6060830152848316818301529482901c841660a08201529381901c909216818401521c60e082015261010090f35b34610fbb576020366003190112610fbb57612a39612c70565b612a41613aa4565b6001600160a01b03168015612a6657600580546001600160a01b031916919091179055005b63d92e233d60e01b5f5260045ffd5b34610fbb575f366003190112610fbb576020600754604051908152f35b34610fbb576040366003190112610fbb57600435612aae612c61565b906001600160a01b03612ac082613a3e565b5460081c1633141580612af8575b61221a57612adb90613a77565b805460ff60401b191691151560401b60ff60401b16919091179055005b50335f9081525f5160206157395f395f51905f52602052604090205460ff1615612ace565b34610fbb576020366003190112610fbb576004355f52600960205260405f2080549060ff82169160018201549160018060401b0360028201541660ff60046003840154930154169260405194600287101561097d5763ffffffff61ffff926101a098885260018060a01b038160081c16602089015260ff8160a81c161515604089015260b01c16606087015260018060401b038116608087015263ffffffff8160401c1660a087015260018060401b038160601c1660c0870152818160a01c1660e0870152818160b01c1661010087015260c01c166101208501526101408401526101608301521515610180820152f35b34610fbb576020366003190112610fbb576004359063ffffffff60e01b8216809203610fbb57602091637965db0b60e01b8114908115612c50575b5015158152f35b6301ffc9a760e01b14905083612c49565b602435908115158203610fbb57565b600435906001600160a01b0382168203610fbb57565b602435906001600160a01b0382168203610fbb57565b9181601f84011215610fbb578235916001600160401b038311610fbb5760208381860195010111610fbb57565b9181601f84011215610fbb578235916001600160401b038311610fbb576020808501948460051b010111610fbb57565b90600382101561097d5752565b805180835260209291819084018484015e5f828201840152601f01601f1916010190565b6040906003190112610fbb576004359060243590565b6004111561097d57565b5f525f602052600160405f20015490565b604081019081106001600160401b03821117612d7657604052565b634e487b7160e01b5f52604160045260245ffd5b60a081019081106001600160401b03821117612d7657604052565b601f909101601f19168101906001600160401b03821190821017612d7657604052565b8051821015612ddc5760209160051b010190565b634e487b7160e01b5f52603260045260245ffd5b63ffffffff60019116019063ffffffff82116125e657565b9063ffffffff8091169116019063ffffffff82116125e657565b6001600160401b0391821690821603919082116125e657565b8054600160801b600160c01b03191660809290921b600160801b600160c01b0316919091179055565b6001600160401b0391821690821601919082116125e657565b8054600160401b600160801b03191660409290921b600160401b600160801b0316919091179055565b805463ffffffff60681b191660689290921b63ffffffff60681b16919091179055565b6006549091906001600160a01b031633036133bf57815f52601360205260405f209060405193612ef885612d5b565b600183549384875201549260208601938452156133ac5784515f52600c60205260405f2083515f5260205260405f209360ff855416612f3681612d40565b1580159061339e575b61338c575084515f52600a60205260405f209285515f52600b60205260405f2091845460ff8116600581101561097d57600414613371575086515f52600d60205260405f2063ffffffff875460881c1694612f9986613916565b95612fa76040519788612da5565b808752612fb381613916565b602088019390601f19013685375f905f9080545b8083106132dd5750505081036132ce575b6001811161323557505060405160208101918160408101916020855288518093526060820190925f5b81811061321357505061301d925003601f198101835282612da5565b519020945f955f5b63ffffffff895460881c1663ffffffff821690811015613142575f60206001600160401b03613054848c612dc8565b515f5160206157995f395f51905f5254604051639cd07acb60e01b8152929091166004830152600560248301529092839160449183916001600160a01b03165af19081156121fd575f91613111575b506130ad81613bf0565b508b515f52600e60205260405f2087515f5260205260405f20825f5260205260405f20556130e260018060401b039189612dc8565b51166130f7575b60010163ffffffff16613025565b96600161310863ffffffff92612df0565b989150506130e9565b90506020813d821161313a575b8161312b60209383612da5565b81010312610fbb57515f6130a3565b3d915061311e565b50508454600189018054949a959995989397509195600395946131b594936131a49361319e926001600160401b039081169160801c16818110156131f9575b50505482546001600160401b039182169160409190911c16612e64565b90612e7d565b825460ff1916600117835582612ea6565b0155805467ffff0000000000ff19166001600160381b01179055519051907f0d126cc29a5b05474d82b5bc3dd0ff4a60daa9f6880bd490edfe68ad682b02c55f80a3565b61320c9161320691612e22565b84612e3b565b5f80613181565b84516001600160401b0316835260209485019486945090920191600101613001565b604051602081019083825282604082015260408152613255606082612da5565b51902081156132ba575f198201908290068282116125e6576132ab906001600160401b03613283848c612dc8565b5116926132a46001600160401b0361329b848e612dc8565b5116918c612dc8565b5289612dc8565b5280156125e6575f1901612fd8565b634e487b7160e01b5f52601260045260245ffd5b631c2f842b60e01b5f5260045ffd5b94819a9b9563ffffffff849f9994969e98939a959b966132fe905f9c6139fe565b505460401c168a1015613359578d8b10156132ce578c8f8c6133248f92613335936139fe565b50546001600160401b031692612dc8565b525f198b146125e6578b8f9b60018091019b019a9b6132fe9063ffffffff926139fe565b91969c9499939850949a9991969c6001019190612fc7565b60ff60301b191690945550505f600290930192909255915050565b639ce13f0360e01b5f5260045260245ffd5b508060028601541415612f3f565b83639ce13f0360e01b5f5260045260245ffd5b633d2506c360e21b5f523360045260245ffd5b919082018092116125e657565b9064ffffffff0082549160081b169064ffffffff001916179055565b805463ffffffff60881b191660889290921b63ffffffff60881b16919091179055565b8054600160a81b600160e81b03191660a89290921b600160a81b600160e81b0316919091179055565b61345081613a3e565b9061345a81613a77565b9160ff815416600281101561097d5760010361377857825460ff8160281c1661376557825f52600c60205263ffffffff60405f209160081c1690815f52602052600360ff60405f2054166134ad81612d40565b0361374f5750815f52600b602052600160405f2091019060018060401b03825460601c1661356961355460018401549261354f85549461354561353161351d61350960018060401b038a60401c1660018060401b0386166133d2565b60808a901c6001600160401b0316906133d2565b604084901c6001600160401b0316906133d2565b608083901c6001600160401b0316906133d2565b9060c01c906133d2565b6133d2565b9160c081901c906001600160401b03166133d2565b1061373f578154815461359c92916135969160609190911c6001600160401b039081169160801c16612e64565b90612e3b565b63ffffffff835460081c1692600184018094116125e6576135c363ffffffff8516826133df565b805467ffff0000000000ff191661010160301b1790555f828152600c6020908152604080832086845290915290819020805460ff19168155825490929161361291901c63ffffffff16836133fb565b8054613627906001600160401b03168361341e565b546001820180546001600160401b03191660609290921c6001600160401b03169190911790556006546040516307d4f3c160e21b8152600481018490526024810185905290602090829060449082905f906001600160a01b03165af180156121fd57849284925f92613703575b50815f5160206158195f395f51905f5292600260209301556040516136b881612d5b565b8481526001838201878152835f526013855260405f209251835551910155604051908152a37f6a2341d1666f3f0e3aadc986d92f1d363b5c5d2326bd48ed426058c4d529e94a5f80a3565b93509150506020823d602011613737575b8161372160209383612da5565b81010312610fbb57905183918391906002613694565b3d9150613714565b505050600360ff19825416179055565b82631aaef64160e11b5f5260045260245260445ffd5b82636728a05160e01b5f5260045260245ffd5b50639727eb3760e01b5f5260045260245ffd5b600554909291906001600160a01b03163381900361380a57506001600160a01b0316159081156137f8575b506137f5575f52600f602052600260405f2001805460ff8160201c16600381101561097d57156137e4575050565b60ff60281b1916600160281b179055565b50565b6001600160a01b03161590505f6137b6565b630dbca52160e41b5f526004523360245260445ffd5b6004356001600160a01b0381168103610fbb5790565b6024356001600160a01b0381168103610fbb5790565b604091949392606082019560018060a01b0316825260208201520152565b9190811015612ddc5760051b0190565b6084356001600160401b0381168103610fbb5790565b60c4356001600160401b0381168103610fbb5790565b610144356001600160401b0381168103610fbb5790565b356001600160401b0381168103610fbb5790565b9192916001600160401b038211612d7657604051916138fa601f8201601f191660200184612da5565b829481845281830111610fbb578281602093845f960137010152565b6001600160401b038111612d765760051b60200190565b80546001600160c01b031660c09290921b6001600160c01b031916919091179055565b6044358015158103610fbb5790565b60a43563ffffffff81168103610fbb5790565b60643563ffffffff81168103610fbb5790565b3563ffffffff81168103610fbb5790565b805463ffffffff60401b191660409290921b63ffffffff60401b16919091179055565b60e43561ffff81168103610fbb5790565b6101243561ffff81168103610fbb5790565b6101043561ffff81168103610fbb5790565b9190811015612ddc5760061b0190565b8054821015612ddc575f5260205f2001905f90565b6001600160a01b03909116815260208101919091526001600160401b03909116604082015260600190565b5f81815260096020526040902080549092919060081c6001600160a01b031615613a655750565b6302ad881560e41b5f5260045260245ffd5b5f8181526009602052604090205460081c6001600160a01b031615613a65575f52600a60205260405f2090565b335f9081525f5160206157395f395f51905f52602052604090205460ff1615613ac957565b63e2517d3f60e01b5f52336004525f5160206157f95f395f51905f5260245260445ffd5b335f9081525f5160206158395f395f51905f52602052604090205460ff1615613b1257565b63e2517d3f60e01b5f52336004525f5160206157795f395f51905f5260245260445ffd5b5f8181526020818152604080832033845290915290205460ff1615613b585750565b63e2517d3f60e01b5f523360045260245260445ffd5b5f5160206157995f395f51905f5254604051639cd07acb60e01b81525f60048201819052600560248301529091602091839160449183916001600160a01b03165af19081156121fd575f91613bc1575090565b90506020813d602011613be8575b81613bdc60209383612da5565b81010312610fbb575190565b3d9150613bcf565b8015613c04575b613c013082614dfd565b90565b50613c0d613b6e565b613bf7565b6001600160a01b0381165f9081525f5160206158395f395f51905f52602052604090205460ff16613c92576001600160a01b03165f8181525f5160206158395f395f51905f5260205260408120805460ff191660011790553391905f5160206157795f395f51905f52905f5160206157195f395f51905f529080a4600190565b505f90565b5f818152602081815260408083206001600160a01b038616845290915290205460ff16613d06575f818152602081815260408083206001600160a01b0395909516808452949091528120805460ff19166001179055339291905f5160206157195f395f51905f529080a4600190565b50505f90565b6001600160a01b0381165f9081525f5160206158395f395f51905f52602052604090205460ff1615613c92576001600160a01b03165f8181525f5160206158395f395f51905f5260205260408120805460ff191690553391905f5160206157795f395f51905f52905f5160206157d95f395f51905f529080a4600190565b5f818152602081815260408083206001600160a01b038616845290915290205460ff1615613d06575f818152602081815260408083206001600160a01b0395909516808452949091528120805460ff19169055339291905f5160206157d95f395f51905f529080a4600190565b9160ff825416600581101561097d57600414613f2e57825f52600b60205260405f20815463ffffffff8160081c1615613e53575b5050815466ff0000000000ff1916600417909155505f5160206157595f395f51905f525f80a2565b60ff60019116613e6281612d40565b1480613f0d575b613edb575b60ff825416613e7c81612d40565b1580613eba575b613e8e575b80613e2b565b613596613eb3926001808060401b039101541660018060401b03835460801c16612e22565b5f80613e88565b50805460018301546001600160401b0360809290921c821691161115613e83565b60018201548154613f0891613f02916001600160401b039182169160409190911c16612e22565b82612e7d565b613e6e565b50805460018301546001600160401b0360409290921c821691161115613e69565b505050565b600260035414613f44576002600355565b633ee5aeb560e01b5f5260045ffd5b60ff60045416613f5f57565b63d93c066560e01b5f5260045ffd5b90816020910312610fbb57516001600160a01b0381168103610fbb5790565b6024613f9883614e7a565b6005546040516331a9108f60e11b8152600481018690525f9490939091602091859182906001600160a01b03165afa9283156121fd575f93614158575b506001600160a01b038181169316839003614141576002820160ff815460201c16600381101561097d5761412e57805460ff60201b1916600160201b1790555f8581526010602052604090206001818101805460ff1916909117905554614046919061404081613bf0565b50614e92565b506005546001600160a01b0316803b15610fbb575f8091604460405180948193632fad0bcd60e21b83528a6004840152600160248401525af180156121fd57614118575b506040817f67322e142163f302c6f76e94d7718e12bc77dd2b9fe8cf494d1e8f37d87af1ba92548552600c602052818086209560018301968754825260205220805463ffffffff60481b6140e663ffffffff8360481c16612df0565b60481b169063ffffffff60481b19161790556141058154865490614eb9565b54935494815190815260016020820152a4565b6141259193505f90612da5565b5f91604061408a565b85634e4e7e9760e11b5f5260045260245ffd5b8285636fc1682960e11b5f5260045260245260445ffd5b61417b91935060203d602011614182575b6141738183612da5565b810190613f6e565b915f613fd5565b503d614169565b818102929181159184041417156125e657565b9190925f91811580156144fd575b6144ee576141b785613a3e565b9360ff600486015416156144df576141ce86613a77565b9586549560ff8760401c166144cc576141e682615046565b968754906141fd8763ffffffff8460081c166133d2565b9063ffffffff8360881c168092116144ac579063ffffffff889260081c165f5b8381106143e7575061423e9360a81c6001600160401b031691506141899050565b60045490919060081c6001600160a01b0316803b15610fbb575f6040518092631782f97960e01b8252818381614279898b8d6004850161384c565b03925af180156121fd576143c9575b509061359660016142d26142ea94868b52600b60205261ffff8360408d2096818060401b0316926142c66142c0858a5460c01c612e64565b8961392d565b015460a01c16906150c4565b9201805490929060801c6001600160401b0316612e64565b845b84811061435d575050505061431463ffffffff61431a921663ffffffff855460081c16612e08565b836133df565b815463ffffffff8160881c1663ffffffff8260081c161461433c575b50505050565b81600292505060ff1916179055600260ff198254161790555f808080614336565b806143c2614376614371600194898961386a565b613985565b84895260146020526040892063ffffffff8c5460081c168a526020526040892063ffffffff82165f5260205260405f208460ff1982541617905563ffffffff8b5460081c1685876150e6565b50016142ec565b6142ea929197505f6143da91612da5565b5f96909150613596614288565b9091926143fd6143718363ffffffff938c61386a565b168381101561449a57865f52601460205260405f20835f5260205260405f20815f5260205260ff60405f20541661448857600182018083116125e6575b8a8a81831061445357505050506001019088929161421d565b6143718363ffffffff936144669361386a565b1682146144755760010161443a565b506308c9001360e01b5f5260045260245ffd5b63c04f90d760e01b5f5260045260245ffd5b63ce867a0160e01b5f5260045260245ffd5b63ffffffff90856395d246db60e01b5f5260045260081c1660245260445ffd5b5063ba3259b760e01b5f5260045260245ffd5b634d4a4b9160e11b5f5260045ffd5b63524f409b60e01b5f5260045ffd5b50604082116141aa565b90915f9063ffffffff8116801580156147ae575b6144ee5761452885613a3e565b9361453286613a77565b9586549560ff8760401c166144cc5761454a82615046565b968754906145618663ffffffff8460081c166133d2565b63ffffffff8360881c161061478e575061458890859060a81c6001600160401b0316614189565b60045490919060081c6001600160a01b0316803b15610fbb575f6040518092631782f97960e01b82528183816145c3898b8d6004850161384c565b03925af180156121fd57614770575b509061359660016142d261460a94868b52600b60205261ffff8360408d2096818060401b0316926142c66142c0858a5460c01c612e64565b84925b8063ffffffff851610614635575050505061431461431a9163ffffffff855460081c16612e08565b90949195929763ffffffff8895985460081c169363ffffffff815460881c169887855260156020526040852086865260205263ffffffff6040862054165b8a63ffffffff82161080614740575b156146955761469090612df0565b614673565b9198949793959096999a929a63ffffffff83161015614729579161472060019263ffffffff94868b52601460205260408b20818c5260205260408b208683165f5260205260405f208560ff198254161790556146f082612df0565b90878c52601560205260408c20908c526020528560408c2091168619825416179055848c5460081c1686886150e6565b5001169261460d565b6395d246db60e01b88526004849052602452604487fd5b508886526014602052604086208787526020526040862063ffffffff82165f5260205260ff60405f205416614682565b61460a929197505f61478191612da5565b5f969091506135966145d2565b63ffffffff90846395d246db60e01b5f5260045260081c1660245260445ffd5b506040811161451b565b92602491926147c684614e7a565b906020600554604051958680926331a9108f60e11b825289600483015260018060a01b03165afa9384156121fd575f94614c38575b506001600160a01b038681169416849003614c21576002820160ff815460201c16600381101561097d57600103614c0e57855f52601060205260ff600160405f2001541615614c0e5760409384516148538682612da5565b6001815260208101601f198701368237885f526010602052865f205490825115612ddc575285515f602061491860018060401b03881695868386015282855261489c8b86612da5565b7f9e7b61f58c47dc699ac88507c4f5bb9f121c03808c5676a8078fe583e4649702548b516378542ead60e01b8152606060048201529485936001600160a01b0390921692849283916149066148f4606485018d615285565b8481036003190160248601528b612d06565b83810360031901604485015290612d06565b03925af1908115614c04575f91614bc9575b5015614bba577fc6366bab028b8d033cb362cfd1f2f3457ef4e92fc738b6788b90d5a7846367a09161497861496a9289519384938b85528b850190615285565b908382036020850152612d06565b0390a115614ba757600160211b60ff60201b1982541617905581545f52600c602052825f2095600183019687545f52602052835f2063ffffffff81548160281b6149c6838360281c16612df0565b60281b16908260281b19161780835560681c1680614b89575b5050845f526011602052835f2081815480155f14614ac35750614a1c91885f526010602052865f205481555b614a158154613bf0565b5054614e92565b506004548354929060081c6001600160a01b0316803b15610fbb57614a5a935f80948851968795869485936334ff782960e21b855260048501613a13565b03925af18015614ab957917f812be816db82c66cd18ca8457005cd84689642d8ac4d38599cc6af444a2dc72a9391602093614aa9575b50614a9e8154885490614eb9565b5495549051908152a4565b5f614ab391612da5565b5f614a90565b83513d5f823e3d90fd5b9050875f526010602052855f20548015614b77575b602090606460018060a01b035f5160206157995f395f51905f525416935f8a51958694859363022f65e760e31b8552600485015260248401528160448401525af1908115614b6d579083915f91614b36575b508255614a1c91614a0b565b9150506020813d602011614b65575b81614b5260209383612da5565b81010312610fbb57518290614a1c614b2a565b3d9150614b45565b86513d5f823e3d90fd5b506020614b82613b6e565b9050614ad8565b5f190163ffffffff81116125e657614ba091612ea6565b5f806149df565b8563025ae0d760e01b5f5260045260245ffd5b63cf6c44e960e01b5f5260045ffd5b90506020813d602011614bfc575b81614be460209383612da5565b81010312610fbb57518015158103610fbb575f61492a565b3d9150614bd7565b88513d5f823e3d90fd5b8563322fb00b60e21b5f5260045260245ffd5b8385636fc1682960e11b5f5260045260245260445ffd5b614c5291945060203d602011614182576141738183612da5565b925f6147fb565b905f6080604051614c6981612d8a565b8281528260208201528260408201528260608201520152815f52600f60205260405f2091600260405193614c9c85612d8a565b8054855260018101546020860152015463ffffffff8116604085015260ff8160201c1690600382101561097d5760ff91606086015260281c1615156080840152825115614ce65750565b6305cf108560e31b5f5260045260245ffd5b6001810154905490614d3b9061354561353161351d614d276001600160401b03604088901c81169086166133d2565b608087901c6001600160401b0316906133d2565b9060c01c9080821115613d065781039081116125e65790565b46600103614d6157600190565b4662aa36a703614d715761271190565b617a694614614d7e575f90565b5f1990565b6001600160401b03811660c8811115614dcf576101f4811115614dae5790600a613c01920490612e64565b600f029060018060401b0382169182036125e6576064613c01920490612e64565b50600181901b6002600160401b03811691906002600160411b031682036125e657600a613c01920490612e64565b7f9e7b61f58c47dc699ac88507c4f5bb9f121c03808c5676a8078fe583e4649700546001600160a01b031691823b15610fbb57604051635ca4b5b160e11b815260048101929092526001600160a01b03166024820152905f908290604490829084905af180156121fd57614e6e5750565b5f614e7891612da5565b565b90815f52600f60205260405f2091825415614ce65750565b908115614ea4575b613c019082614dfd565b9050613c01614eb1613b6e565b919050614e9a565b805f52600c60205260405f20825f5260205260405f208054600260ff8216614ee081612d40565b036143365763ffffffff8160081c1663ffffffff8260481c16036143365763ffffffff8160681c166143365760ff191660031781555f828152600b602052604090819020805460019384018054929493909291901c6001600160401b0390811691161161503257614f6d614f67838060401b03835416848060401b03865460401c16612e22565b84612e7d565b818060401b03905416910190614f9360018060401b039160018060401b03845416612e64565b82546001600160401b03191691161790555f818152600a602090815260408083206009909252909120815460281c60ff1690811561501c575b50614ff9575b507f84ea2725ed7015ebac8f69258b09c394b1f22b1031d4393a1580b3935058d7dc5f80a3565b805460ff19166004179055805f5160206157595f395f51905f525f80a25f614fd2565b60ff91505416600281101561097d57155f614fcc565b8160401b8260801b03198354168355614f6d565b90815f52600a60205260405f20825f52600c60205260405f2090549263ffffffff8460081c1691825f5260205260ff60405f209416600581101561097d576001148015906150ac575b615097575050565b633bd4043360e01b5f5260045260245260445ffd5b50600160ff8554166150bd81612d40565b141561508f565b6001600160401b0391612710916150e19161ffff16908416614189565b041690565b919392600854928395600185018086116125e6576008556040519261510a84612d8a565b8484526020840182815263ffffffff6040860192169485835263ffffffff80600260608401935f855260808101955f87528c5f52600f60205260405f2091518255516001820155019451161663ffffffff1984541617835551600381101561097d578254915161ffff60201b19909216602091821b60ff60201b161791151560281b60ff60281b16919091179091555f858152600e825260408082209382529282528281208582529091528190205490516151f9916151c882612d5b565b81526001602082015f8152875f52601060205260405f209251835551151591019060ff801983541691151516179055565b6005546001600160a01b031691823b15610fbb575f80926044604051809581936352fbfa3360e11b835260018060a01b0316978860048401528a60248401525af19081156121fd577fe1728090da8399cc175d2ee38a90e0f2bee3e1b238deca69cb04e2c314ead1d692602092615275575b50604051908152a4565b5f61527f91612da5565b5f61526b565b90602080835192838152019201905f5b8181106152a25750505090565b8251845260209384019390920191600101615295565b60ff81146152fe5760ff811690601f82116152ef57604051916152dc604084612da5565b6020808452838101919036833783525290565b632cd44ac360e21b5f5260045ffd5b506040515f6001548060011c91600182169182156153d4575b6020841083146153c05783855284929081156153a15750600114615342575b613c0192500382612da5565b5060015f90815290917fb10e2d527612073b26eecdfd717e6a320cf44b4afac2b0732d9fcbe2b7fa0cf65b818310615385575050906020613c0192820101615336565b602091935080600191548385880101520191019091839261536d565b60209250613c0194915060ff191682840152151560051b820101615336565b634e487b7160e01b5f52602260045260245ffd5b92607f1692615317565b60ff81146154025760ff811690601f82116152ef57604051916152dc604084612da5565b506040515f6002548060011c91600182169182156154a4575b6020841083146153c05783855284929081156153a1575060011461544557613c0192500382612da5565b5060025f90815290917f405787fa12a823e0f2b7631cc41b3ba8828b3321ca811111fa75cd3aa3bb5ace5b818310615488575050906020613c0192820101615336565b6020919350806001915483858801015201910190918392615470565b92607f169261541b565b307f00000000000000000000000000000000000000000000000000000000000000006001600160a01b031614806155a1575b15615509577f000000000000000000000000000000000000000000000000000000000000000090565b60405160208101907f8b73c3c69bb8fe3d512ecc4cf759cc79239f7b179b0ffacaa9a75d522b39400f82527f000000000000000000000000000000000000000000000000000000000000000060408201527f000000000000000000000000000000000000000000000000000000000000000060608201524660808201523060a082015260a0815261559b60c082612da5565b51902090565b507f000000000000000000000000000000000000000000000000000000000000000046146154e0565b81519190604183036155fa576155f39250602082015190606060408401519301515f1a90615680565b9192909190565b50505f9160029190565b61560d81612d40565b80615616575050565b61561f81612d40565b600181036156365763f645eedf60e01b5f5260045ffd5b61563f81612d40565b6002810361565a575063fce698f760e01b5f5260045260245ffd5b60039061566681612d40565b1461566e5750565b6335e2f38360e21b5f5260045260245ffd5b91906fa2a8918ca85bafe22016d0b997e4df60600160ff1b0384116156ed579160209360809260ff5f9560405194855216868401526040830152606082015282805260015afa156121fd575f516001600160a01b038116156156e357905f905f90565b505f906001905f90565b5050505f916003919056fefd83144011aafa0af9dab7a39e557abb85000b4439df1833a5a16951086c01a52f8788117e7eff1d82e926ec794901d17c78024a50270940304540a733656f0d7d7ffb7a348e1c6a02869081a26547b49160dd3df72d1d75a570eb9b698292ec925a19753e677c9dc36a80e0fc824ca0c5b1afde494872b43daccab9ffeaffd4e2b7fb3b832174769106daebcfd6d1970523240dda11281102db9363b83b0dc49e7b61f58c47dc699ac88507c4f5bb9f121c03808c5676a8078fe583e46497015700b1935d413e05c98e4da207eb31e308d66492278e9ec49f0edd97d2fd62f4f6391f5c32d9c69d2a47ea670b442974b53935d1edc7fd64eb21e047a839171ba49807205ce4d355092ef5a8a18f56e8913cf4a201fbe287825b095693c217759c01287485d11658fd510362205cd0d4492fa429b61aa2a5fd0c1d4d33513c55faf93c3d007e112089dc8351e013e6685ef67703975d0224b26fc45941d4f1f5a26469706673582212200f3ed011378258945791ef4f295054d0aea1871e32c0f2bd34cd5d7fe4a2aa6264736f6c634300081e00332f8788117e7eff1d82e926ec794901d17c78024a50270940304540a733656f0d7d7ffb7a348e1c6a02869081a26547b49160dd3df72d1d75a570eb9b698292ecad3228b676f7d3cd4284a5443f17f1962b36e491b30a40b2405849e597ba5fb5",
  "devdoc": {
    "errors": {
      "AccessControlBadConfirmation()": [
        {
          "details": "The caller of a function is not the expected one. NOTE: Don't confuse with {AccessControlUnauthorizedAccount}."
        }
      ],
      "AccessControlUnauthorizedAccount(address,bytes32)": [
        {
          "details": "The `account` is missing a role."
        }
      ],
      "ECDSAInvalidSignature()": [
        {
          "details": "The signature derives the `address(0)`."
        }
      ],
      "ECDSAInvalidSignatureLength(uint256)": [
        {
          "details": "The signature has an invalid length."
        }
      ],
      "ECDSAInvalidSignatureS(bytes32)": [
        {
          "details": "The signature has an S value that is in the upper half order."
        }
      ],
      "EnforcedPause()": [
        {
          "details": "The operation failed because the contract is paused."
        }
      ],
      "ExpectedPause()": [
        {
          "details": "The operation failed because the contract is not paused."
        }
      ],
      "ReentrancyGuardReentrantCall()": [
        {
          "details": "Unauthorized reentrant call."
        }
      ]
    },
    "events": {
      "EIP712DomainChanged()": {
        "details": "MAY be emitted to signal that the domain could have changed."
      },
      "Paused(address)": {
        "details": "Emitted when the pause is triggered by `account`."
      },
      "RoleAdminChanged(bytes32,bytes32,bytes32)": {
        "details": "Emitted when `newAdminRole` is set as ``role``'s admin role, replacing `previousAdminRole` `DEFAULT_ADMIN_ROLE` is the starting admin for all roles, despite {RoleAdminChanged} not being emitted signaling this."
      },
      "RoleGranted(bytes32,address,address)": {
        "details": "Emitted when `account` is granted `role`. `sender` is the account that originated the contract call, an admin role bearer except when using {AccessControl-_setupRole}."
      },
      "RoleRevoked(bytes32,address,address)": {
        "details": "Emitted when `account` is revoked `role`. `sender` is the account that originated the contract call:   - if using `revokeRole`, it is the admin role bearer   - if using `renounceRole`, it is the role bearer (i.e. `account`)"
      },
      "Unpaused(address)": {
        "details": "Emitted when the pause is lifted by `account`."
      }
    },
    "kind": "dev",
    "methods": {
      "eip712Domain()": {
        "details": "See {IERC-5267}."
      },
      "getRoleAdmin(bytes32)": {
        "details": "Returns the admin role that controls `role`. See {grantRole} and {revokeRole}. To change a role's admin, use {_setRoleAdmin}."
      },
      "grantRole(bytes32,address)": {
        "details": "Grants `role` to `account`. If `account` had not been already granted `role`, emits a {RoleGranted} event. Requirements: - the caller must have ``role``'s admin role. May emit a {RoleGranted} event."
      },
      "hasRole(bytes32,address)": {
        "details": "Returns `true` if `account` has been granted `role`."
      },
      "paused()": {
        "details": "Returns true if the contract is paused, and false otherwise."
      },
      "renounceRole(bytes32,address)": {
        "details": "Revokes `role` from the calling account. Roles are often managed via {grantRole} and {revokeRole}: this function's purpose is to provide a mechanism for accounts to lose their privileges if they are compromised (such as when a trusted device is misplaced). If the calling account had been revoked `role`, emits a {RoleRevoked} event. Requirements: - the caller must be `callerConfirmation`. May emit a {RoleRevoked} event."
      },
      "revokeRole(bytes32,address)": {
        "details": "Revokes `role` from `account`. If `account` had been granted `role`, emits a {RoleRevoked} event. Requirements: - the caller must have ``role``'s admin role. May emit a {RoleRevoked} event."
      },
      "supportsInterface(bytes4)": {
        "details": "See {IERC165-supportsInterface}."
      }
    },
    "version": 1
  },
  "userdoc": {
    "errors": {
      "InvalidKMSSignatures()": [
        {
          "notice": "Returned if the returned KMS signatures are not valid."
        }
      ],
      "ZamaProtocolUnsupported()": [
        {
          "notice": "Returned if the Zama protocol is not supported on the current chain"
        }
      ]
    },
    "events": {
      "PublicDecryptionVerified(bytes32[],bytes)": {
        "notice": "This event is emitted when public decryption has been successfully verified."
      }
    },
    "kind": "user",
    "methods": {},
    "version": 1
  },
  "storageLayout": {
    "storage": [
      {
        "astId": 42182,
        "contract": "contracts/luckyScratch/LuckyScratchCore.sol:LuckyScratchCore",
        "label": "_roles",
        "offset": 0,
        "slot": "0",
        "type": "t_mapping(t_bytes32,t_struct(RoleData)42177_storage)"
      },
      {
        "astId": 43742,
        "contract": "contracts/luckyScratch/LuckyScratchCore.sol:LuckyScratchCore",
        "label": "_nameFallback",
        "offset": 0,
        "slot": "1",
        "type": "t_string_storage"
      },
      {
        "astId": 43744,
        "contract": "contracts/luckyScratch/LuckyScratchCore.sol:LuckyScratchCore",
        "label": "_versionFallback",
        "offset": 0,
        "slot": "2",
        "type": "t_string_storage"
      },
      {
        "astId": 42717,
        "contract": "contracts/luckyScratch/LuckyScratchCore.sol:LuckyScratchCore",
        "label": "_status",
        "offset": 0,
        "slot": "3",
        "type": "t_uint256"
      },
      {
        "astId": 42598,
        "contract": "contracts/luckyScratch/LuckyScratchCore.sol:LuckyScratchCore",
        "label": "_paused",
        "offset": 0,
        "slot": "4",
        "type": "t_bool"
      },
      {
        "astId": 45549,
        "contract": "contracts/luckyScratch/LuckyScratchCore.sol:LuckyScratchCore",
        "label": "treasury",
        "offset": 1,
        "slot": "4",
        "type": "t_address"
      },
      {
        "astId": 45551,
        "contract": "contracts/luckyScratch/LuckyScratchCore.sol:LuckyScratchCore",
        "label": "ticket",
        "offset": 0,
        "slot": "5",
        "type": "t_address"
      },
      {
        "astId": 45553,
        "contract": "contracts/luckyScratch/LuckyScratchCore.sol:LuckyScratchCore",
        "label": "vrfAdapter",
        "offset": 0,
        "slot": "6",
        "type": "t_address"
      },
      {
        "astId": 45556,
        "contract": "contracts/luckyScratch/LuckyScratchCore.sol:LuckyScratchCore",
        "label": "nextPoolId",
        "offset": 0,
        "slot": "7",
        "type": "t_uint256"
      },
      {
        "astId": 45559,
        "contract": "contracts/luckyScratch/LuckyScratchCore.sol:LuckyScratchCore",
        "label": "nextTicketId",
        "offset": 0,
        "slot": "8",
        "type": "t_uint256"
      },
      {
        "astId": 45564,
        "contract": "contracts/luckyScratch/LuckyScratchCore.sol:LuckyScratchCore",
        "label": "poolConfigs",
        "offset": 0,
        "slot": "9",
        "type": "t_mapping(t_uint256,t_struct(PoolConfig)50024_storage)"
      },
      {
        "astId": 45569,
        "contract": "contracts/luckyScratch/LuckyScratchCore.sol:LuckyScratchCore",
        "label": "poolStates",
        "offset": 0,
        "slot": "10",
        "type": "t_mapping(t_uint256,t_struct(PoolState)50055_storage)"
      },
      {
        "astId": 45574,
        "contract": "contracts/luckyScratch/LuckyScratchCore.sol:LuckyScratchCore",
        "label": "poolAccounting",
        "offset": 0,
        "slot": "11",
        "type": "t_mapping(t_uint256,t_struct(PoolAccounting)50041_storage)"
      },
      {
        "astId": 45581,
        "contract": "contracts/luckyScratch/LuckyScratchCore.sol:LuckyScratchCore",
        "label": "roundStates",
        "offset": 0,
        "slot": "12",
        "type": "t_mapping(t_uint256,t_mapping(t_uint256,t_struct(RoundState)50077_storage))"
      },
      {
        "astId": 45587,
        "contract": "contracts/luckyScratch/LuckyScratchCore.sol:LuckyScratchCore",
        "label": "poolPrizeTiers",
        "offset": 0,
        "slot": "13",
        "type": "t_mapping(t_uint256,t_array(t_struct(PrizeTierInput)49996_storage)dyn_storage)"
      },
      {
        "astId": 45596,
        "contract": "contracts/luckyScratch/LuckyScratchCore.sol:LuckyScratchCore",
        "label": "encryptedPrizeSlots",
        "offset": 0,
        "slot": "14",
        "type": "t_mapping(t_uint256,t_mapping(t_uint256,t_mapping(t_uint32,t_userDefinedValueType(euint64)50135)))"
      },
      {
        "astId": 45601,
        "contract": "contracts/luckyScratch/LuckyScratchCore.sol:LuckyScratchCore",
        "label": "tickets",
        "offset": 0,
        "slot": "15",
        "type": "t_mapping(t_uint256,t_struct(TicketData)50089_storage)"
      },
      {
        "astId": 45606,
        "contract": "contracts/luckyScratch/LuckyScratchCore.sol:LuckyScratchCore",
        "label": "encryptedTickets",
        "offset": 0,
        "slot": "16",
        "type": "t_mapping(t_uint256,t_struct(EncryptedTicketState)50099_storage)"
      },
      {
        "astId": 45611,
        "contract": "contracts/luckyScratch/LuckyScratchCore.sol:LuckyScratchCore",
        "label": "users",
        "offset": 0,
        "slot": "17",
        "type": "t_mapping(t_address,t_struct(EncryptedUserState)50093_storage)"
      },
      {
        "astId": 45615,
        "contract": "contracts/luckyScratch/LuckyScratchCore.sol:LuckyScratchCore",
        "label": "nonces",
        "offset": 0,
        "slot": "18",
        "type": "t_mapping(t_address,t_uint256)"
      },
      {
        "astId": 45620,
        "contract": "contracts/luckyScratch/LuckyScratchCore.sol:LuckyScratchCore",
        "label": "vrfRequests",
        "offset": 0,
        "slot": "19",
        "type": "t_mapping(t_bytes32,t_struct(VrfRequestContext)45547_storage)"
      },
      {
        "astId": 45628,
        "contract": "contracts/luckyScratch/LuckyScratchCore.sol:LuckyScratchCore",
        "label": "soldTicketSlots",
        "offset": 0,
        "slot": "20",
        "type": "t_mapping(t_uint256,t_mapping(t_uint256,t_mapping(t_uint32,t_bool)))"
      },
      {
        "astId": 45634,
        "contract": "contracts/luckyScratch/LuckyScratchCore.sol:LuckyScratchCore",
        "label": "nextAutoTicketIndex",
        "offset": 0,
        "slot": "21",
        "type": "t_mapping(t_uint256,t_mapping(t_uint256,t_uint32))"
      }
    ],
    "types": {
      "t_address": {
        "encoding": "inplace",
        "label": "address",
        "numberOfBytes": "20"
      },
      "t_array(t_struct(PrizeTierInput)49996_storage)dyn_storage": {
        "base": "t_struct(PrizeTierInput)49996_storage",
        "encoding": "dynamic_array",
        "label": "struct PrizeTierInput[]",
        "numberOfBytes": "32"
      },
      "t_bool": {
        "encoding": "inplace",
        "label": "bool",
        "numberOfBytes": "1"
      },
      "t_bytes32": {
        "encoding": "inplace",
        "label": "bytes32",
        "numberOfBytes": "32"
      },
      "t_enum(PoolMode)49971": {
        "encoding": "inplace",
        "label": "enum PoolMode",
        "numberOfBytes": "1"
      },
      "t_enum(PoolStatus)49977": {
        "encoding": "inplace",
        "label": "enum PoolStatus",
        "numberOfBytes": "1"
      },
      "t_enum(RoundStatus)49982": {
        "encoding": "inplace",
        "label": "enum RoundStatus",
        "numberOfBytes": "1"
      },
      "t_enum(TicketStatus)49986": {
        "encoding": "inplace",
        "label": "enum TicketStatus",
        "numberOfBytes": "1"
      },
      "t_mapping(t_address,t_bool)": {
        "encoding": "mapping",
        "key": "t_address",
        "label": "mapping(address => bool)",
        "numberOfBytes": "32",
        "value": "t_bool"
      },
      "t_mapping(t_address,t_struct(EncryptedUserState)50093_storage)": {
        "encoding": "mapping",
        "key": "t_address",
        "label": "mapping(address => struct EncryptedUserState)",
        "numberOfBytes": "32",
        "value": "t_struct(EncryptedUserState)50093_storage"
      },
      "t_mapping(t_address,t_uint256)": {
        "encoding": "mapping",
        "key": "t_address",
        "label": "mapping(address => uint256)",
        "numberOfBytes": "32",
        "value": "t_uint256"
      },
      "t_mapping(t_bytes32,t_struct(RoleData)42177_storage)": {
        "encoding": "mapping",
        "key": "t_bytes32",
        "label": "mapping(bytes32 => struct AccessControl.RoleData)",
        "numberOfBytes": "32",
        "value": "t_struct(RoleData)42177_storage"
      },
      "t_mapping(t_bytes32,t_struct(VrfRequestContext)45547_storage)": {
        "encoding": "mapping",
        "key": "t_bytes32",
        "label": "mapping(bytes32 => struct LuckyScratchCore.VrfRequestContext)",
        "numberOfBytes": "32",
        "value": "t_struct(VrfRequestContext)45547_storage"
      },
      "t_mapping(t_uint256,t_array(t_struct(PrizeTierInput)49996_storage)dyn_storage)": {
        "encoding": "mapping",
        "key": "t_uint256",
        "label": "mapping(uint256 => struct PrizeTierInput[])",
        "numberOfBytes": "32",
        "value": "t_array(t_struct(PrizeTierInput)49996_storage)dyn_storage"
      },
      "t_mapping(t_uint256,t_mapping(t_uint256,t_mapping(t_uint32,t_bool)))": {
        "encoding": "mapping",
        "key": "t_uint256",
        "label": "mapping(uint256 => mapping(uint256 => mapping(uint32 => bool)))",
        "numberOfBytes": "32",
        "value": "t_mapping(t_uint256,t_mapping(t_uint32,t_bool))"
      },
      "t_mapping(t_uint256,t_mapping(t_uint256,t_mapping(t_uint32,t_userDefinedValueType(euint64)50135)))": {
        "encoding": "mapping",
        "key": "t_uint256",
        "label": "mapping(uint256 => mapping(uint256 => mapping(uint32 => euint64)))",
        "numberOfBytes": "32",
        "value": "t_mapping(t_uint256,t_mapping(t_uint32,t_userDefinedValueType(euint64)50135))"
      },
      "t_mapping(t_uint256,t_mapping(t_uint256,t_struct(RoundState)50077_storage))": {
        "encoding": "mapping",
        "key": "t_uint256",
        "label": "mapping(uint256 => mapping(uint256 => struct RoundState))",
        "numberOfBytes": "32",
        "value": "t_mapping(t_uint256,t_struct(RoundState)50077_storage)"
      },
      "t_mapping(t_uint256,t_mapping(t_uint256,t_uint32))": {
        "encoding": "mapping",
        "key": "t_uint256",
        "label": "mapping(uint256 => mapping(uint256 => uint32))",
        "numberOfBytes": "32",
        "value": "t_mapping(t_uint256,t_uint32)"
      },
      "t_mapping(t_uint256,t_mapping(t_uint32,t_bool))": {
        "encoding": "mapping",
        "key": "t_uint256",
        "label": "mapping(uint256 => mapping(uint32 => bool))",
        "numberOfBytes": "32",
        "value": "t_mapping(t_uint32,t_bool)"
      },
      "t_mapping(t_uint256,t_mapping(t_uint32,t_userDefinedValueType(euint64)50135))": {
        "encoding": "mapping",
        "key": "t_uint256",
        "label": "mapping(uint256 => mapping(uint32 => euint64))",
        "numberOfBytes": "32",
        "value": "t_mapping(t_uint32,t_userDefinedValueType(euint64)50135)"
      },
      "t_mapping(t_uint256,t_struct(EncryptedTicketState)50099_storage)": {
        "encoding": "mapping",
        "key": "t_uint256",
        "label": "mapping(uint256 => struct EncryptedTicketState)",
        "numberOfBytes": "32",
        "value": "t_struct(EncryptedTicketState)50099_storage"
      },
      "t_mapping(t_uint256,t_struct(PoolAccounting)50041_storage)": {
        "encoding": "mapping",
        "key": "t_uint256",
        "label": "mapping(uint256 => struct PoolAccounting)",
        "numberOfBytes": "32",
        "value": "t_struct(PoolAccounting)50041_storage"
      },
      "t_mapping(t_uint256,t_struct(PoolConfig)50024_storage)": {
        "encoding": "mapping",
        "key": "t_uint256",
        "label": "mapping(uint256 => struct PoolConfig)",
        "numberOfBytes": "32",
        "value": "t_struct(PoolConfig)50024_storage"
      },
      "t_mapping(t_uint256,t_struct(PoolState)50055_storage)": {
        "encoding": "mapping",
        "key": "t_uint256",
        "label": "mapping(uint256 => struct PoolState)",
        "numberOfBytes": "32",
        "value": "t_struct(PoolState)50055_storage"
      },
      "t_mapping(t_uint256,t_struct(RoundState)50077_storage)": {
        "encoding": "mapping",
        "key": "t_uint256",
        "label": "mapping(uint256 => struct RoundState)",
        "numberOfBytes": "32",
        "value": "t_struct(RoundState)50077_storage"
      },
      "t_mapping(t_uint256,t_struct(TicketData)50089_storage)": {
        "encoding": "mapping",
        "key": "t_uint256",
        "label": "mapping(uint256 => struct TicketData)",
        "numberOfBytes": "32",
        "value": "t_struct(TicketData)50089_storage"
      },
      "t_mapping(t_uint256,t_uint32)": {
        "encoding": "mapping",
        "key": "t_uint256",
        "label": "mapping(uint256 => uint32)",
        "numberOfBytes": "32",
        "value": "t_uint32"
      },
      "t_mapping(t_uint32,t_bool)": {
        "encoding": "mapping",
        "key": "t_uint32",
        "label": "mapping(uint32 => bool)",
        "numberOfBytes": "32",
        "value": "t_bool"
      },
      "t_mapping(t_uint32,t_userDefinedValueType(euint64)50135)": {
        "encoding": "mapping",
        "key": "t_uint32",
        "label": "mapping(uint32 => euint64)",
        "numberOfBytes": "32",
        "value": "t_userDefinedValueType(euint64)50135"
      },
      "t_string_storage": {
        "encoding": "bytes",
        "label": "string",
        "numberOfBytes": "32"
      },
      "t_struct(EncryptedTicketState)50099_storage": {
        "encoding": "inplace",
        "label": "struct EncryptedTicketState",
        "members": [
          {
            "astId": 50096,
            "contract": "contracts/luckyScratch/LuckyScratchCore.sol:LuckyScratchCore",
            "label": "encryptedPrizeAmount",
            "offset": 0,
            "slot": "0",
            "type": "t_userDefinedValueType(euint64)50135"
          },
          {
            "astId": 50098,
            "contract": "contracts/luckyScratch/LuckyScratchCore.sol:LuckyScratchCore",
            "label": "revealAuthorized",
            "offset": 0,
            "slot": "1",
            "type": "t_bool"
          }
        ],
        "numberOfBytes": "64"
      },
      "t_struct(EncryptedUserState)50093_storage": {
        "encoding": "inplace",
        "label": "struct EncryptedUserState",
        "members": [
          {
            "astId": 50092,
            "contract": "contracts/luckyScratch/LuckyScratchCore.sol:LuckyScratchCore",
            "label": "encryptedLifetimeWinnings",
            "offset": 0,
            "slot": "0",
            "type": "t_userDefinedValueType(euint64)50135"
          }
        ],
        "numberOfBytes": "32"
      },
      "t_struct(PoolAccounting)50041_storage": {
        "encoding": "inplace",
        "label": "struct PoolAccounting",
        "members": [
          {
            "astId": 50026,
            "contract": "contracts/luckyScratch/LuckyScratchCore.sol:LuckyScratchCore",
            "label": "lockedBond",
            "offset": 0,
            "slot": "0",
            "type": "t_uint64"
          },
          {
            "astId": 50028,
            "contract": "contracts/luckyScratch/LuckyScratchCore.sol:LuckyScratchCore",
            "label": "reservedPrizeBudget",
            "offset": 8,
            "slot": "0",
            "type": "t_uint64"
          },
          {
            "astId": 50030,
            "contract": "contracts/luckyScratch/LuckyScratchCore.sol:LuckyScratchCore",
            "label": "lockedNextRoundBudget",
            "offset": 16,
            "slot": "0",
            "type": "t_uint64"
          },
          {
            "astId": 50032,
            "contract": "contracts/luckyScratch/LuckyScratchCore.sol:LuckyScratchCore",
            "label": "realizedRevenue",
            "offset": 24,
            "slot": "0",
            "type": "t_uint64"
          },
          {
            "astId": 50034,
            "contract": "contracts/luckyScratch/LuckyScratchCore.sol:LuckyScratchCore",
            "label": "settledPrizeCost",
            "offset": 0,
            "slot": "1",
            "type": "t_uint64"
          },
          {
            "astId": 50036,
            "contract": "contracts/luckyScratch/LuckyScratchCore.sol:LuckyScratchCore",
            "label": "settledProtocolCost",
            "offset": 8,
            "slot": "1",
            "type": "t_uint64"
          },
          {
            "astId": 50038,
            "contract": "contracts/luckyScratch/LuckyScratchCore.sol:LuckyScratchCore",
            "label": "accruedPlatformFee",
            "offset": 16,
            "slot": "1",
            "type": "t_uint64"
          },
          {
            "astId": 50040,
            "contract": "contracts/luckyScratch/LuckyScratchCore.sol:LuckyScratchCore",
            "label": "creatorProfitClaimed",
            "offset": 24,
            "slot": "1",
            "type": "t_uint64"
          }
        ],
        "numberOfBytes": "64"
      },
      "t_struct(PoolConfig)50024_storage": {
        "encoding": "inplace",
        "label": "struct PoolConfig",
        "members": [
          {
            "astId": 49999,
            "contract": "contracts/luckyScratch/LuckyScratchCore.sol:LuckyScratchCore",
            "label": "mode",
            "offset": 0,
            "slot": "0",
            "type": "t_enum(PoolMode)49971"
          },
          {
            "astId": 50001,
            "contract": "contracts/luckyScratch/LuckyScratchCore.sol:LuckyScratchCore",
            "label": "creator",
            "offset": 1,
            "slot": "0",
            "type": "t_address"
          },
          {
            "astId": 50003,
            "contract": "contracts/luckyScratch/LuckyScratchCore.sol:LuckyScratchCore",
            "label": "protocolOwned",
            "offset": 21,
            "slot": "0",
            "type": "t_bool"
          },
          {
            "astId": 50005,
            "contract": "contracts/luckyScratch/LuckyScratchCore.sol:LuckyScratchCore",
            "label": "poolInstanceGroupSize",
            "offset": 22,
            "slot": "0",
            "type": "t_uint32"
          },
          {
            "astId": 50007,
            "contract": "contracts/luckyScratch/LuckyScratchCore.sol:LuckyScratchCore",
            "label": "ticketPrice",
            "offset": 0,
            "slot": "1",
            "type": "t_uint64"
          },
          {
            "astId": 50009,
            "contract": "contracts/luckyScratch/LuckyScratchCore.sol:LuckyScratchCore",
            "label": "totalTicketsPerRound",
            "offset": 8,
            "slot": "1",
            "type": "t_uint32"
          },
          {
            "astId": 50011,
            "contract": "contracts/luckyScratch/LuckyScratchCore.sol:LuckyScratchCore",
            "label": "totalPrizeBudget",
            "offset": 12,
            "slot": "1",
            "type": "t_uint64"
          },
          {
            "astId": 50013,
            "contract": "contracts/luckyScratch/LuckyScratchCore.sol:LuckyScratchCore",
            "label": "feeBps",
            "offset": 20,
            "slot": "1",
            "type": "t_uint16"
          },
          {
            "astId": 50015,
            "contract": "contracts/luckyScratch/LuckyScratchCore.sol:LuckyScratchCore",
            "label": "targetRtpBps",
            "offset": 22,
            "slot": "1",
            "type": "t_uint16"
          },
          {
            "astId": 50017,
            "contract": "contracts/luckyScratch/LuckyScratchCore.sol:LuckyScratchCore",
            "label": "hitRateBps",
            "offset": 24,
            "slot": "1",
            "type": "t_uint16"
          },
          {
            "astId": 50019,
            "contract": "contracts/luckyScratch/LuckyScratchCore.sol:LuckyScratchCore",
            "label": "maxPrize",
            "offset": 0,
            "slot": "2",
            "type": "t_uint64"
          },
          {
            "astId": 50021,
            "contract": "contracts/luckyScratch/LuckyScratchCore.sol:LuckyScratchCore",
            "label": "themeId",
            "offset": 0,
            "slot": "3",
            "type": "t_bytes32"
          },
          {
            "astId": 50023,
            "contract": "contracts/luckyScratch/LuckyScratchCore.sol:LuckyScratchCore",
            "label": "selectable",
            "offset": 0,
            "slot": "4",
            "type": "t_bool"
          }
        ],
        "numberOfBytes": "160"
      },
      "t_struct(PoolState)50055_storage": {
        "encoding": "inplace",
        "label": "struct PoolState",
        "members": [
          {
            "astId": 50044,
            "contract": "contracts/luckyScratch/LuckyScratchCore.sol:LuckyScratchCore",
            "label": "status",
            "offset": 0,
            "slot": "0",
            "type": "t_enum(PoolStatus)49977"
          },
          {
            "astId": 50046,
            "contract": "contracts/luckyScratch/LuckyScratchCore.sol:LuckyScratchCore",
            "label": "currentRound",
            "offset": 1,
            "slot": "0",
            "type": "t_uint32"
          },
          {
            "astId": 50048,
            "contract": "contracts/luckyScratch/LuckyScratchCore.sol:LuckyScratchCore",
            "label": "closeRequested",
            "offset": 5,
            "slot": "0",
            "type": "t_bool"
          },
          {
            "astId": 50050,
            "contract": "contracts/luckyScratch/LuckyScratchCore.sol:LuckyScratchCore",
            "label": "vrfPending",
            "offset": 6,
            "slot": "0",
            "type": "t_bool"
          },
          {
            "astId": 50052,
            "contract": "contracts/luckyScratch/LuckyScratchCore.sol:LuckyScratchCore",
            "label": "initialized",
            "offset": 7,
            "slot": "0",
            "type": "t_bool"
          },
          {
            "astId": 50054,
            "contract": "contracts/luckyScratch/LuckyScratchCore.sol:LuckyScratchCore",
            "label": "paused",
            "offset": 8,
            "slot": "0",
            "type": "t_bool"
          }
        ],
        "numberOfBytes": "32"
      },
      "t_struct(PrizeTierInput)49996_storage": {
        "encoding": "inplace",
        "label": "struct PrizeTierInput",
        "members": [
          {
            "astId": 49993,
            "contract": "contracts/luckyScratch/LuckyScratchCore.sol:LuckyScratchCore",
            "label": "prizeAmount",
            "offset": 0,
            "slot": "0",
            "type": "t_uint64"
          },
          {
            "astId": 49995,
            "contract": "contracts/luckyScratch/LuckyScratchCore.sol:LuckyScratchCore",
            "label": "count",
            "offset": 8,
            "slot": "0",
            "type": "t_uint32"
          }
        ],
        "numberOfBytes": "32"
      },
      "t_struct(RoleData)42177_storage": {
        "encoding": "inplace",
        "label": "struct AccessControl.RoleData",
        "members": [
          {
            "astId": 42174,
            "contract": "contracts/luckyScratch/LuckyScratchCore.sol:LuckyScratchCore",
            "label": "hasRole",
            "offset": 0,
            "slot": "0",
            "type": "t_mapping(t_address,t_bool)"
          },
          {
            "astId": 42176,
            "contract": "contracts/luckyScratch/LuckyScratchCore.sol:LuckyScratchCore",
            "label": "adminRole",
            "offset": 0,
            "slot": "1",
            "type": "t_bytes32"
          }
        ],
        "numberOfBytes": "64"
      },
      "t_struct(RoundState)50077_storage": {
        "encoding": "inplace",
        "label": "struct RoundState",
        "members": [
          {
            "astId": 50058,
            "contract": "contracts/luckyScratch/LuckyScratchCore.sol:LuckyScratchCore",
            "label": "status",
            "offset": 0,
            "slot": "0",
            "type": "t_enum(RoundStatus)49982"
          },
          {
            "astId": 50060,
            "contract": "contracts/luckyScratch/LuckyScratchCore.sol:LuckyScratchCore",
            "label": "soldCount",
            "offset": 1,
            "slot": "0",
            "type": "t_uint32"
          },
          {
            "astId": 50062,
            "contract": "contracts/luckyScratch/LuckyScratchCore.sol:LuckyScratchCore",
            "label": "claimedCount",
            "offset": 5,
            "slot": "0",
            "type": "t_uint32"
          },
          {
            "astId": 50064,
            "contract": "contracts/luckyScratch/LuckyScratchCore.sol:LuckyScratchCore",
            "label": "scratchedCount",
            "offset": 9,
            "slot": "0",
            "type": "t_uint32"
          },
          {
            "astId": 50066,
            "contract": "contracts/luckyScratch/LuckyScratchCore.sol:LuckyScratchCore",
            "label": "winClaimableCount",
            "offset": 13,
            "slot": "0",
            "type": "t_uint32"
          },
          {
            "astId": 50068,
            "contract": "contracts/luckyScratch/LuckyScratchCore.sol:LuckyScratchCore",
            "label": "totalTickets",
            "offset": 17,
            "slot": "0",
            "type": "t_uint32"
          },
          {
            "astId": 50070,
            "contract": "contracts/luckyScratch/LuckyScratchCore.sol:LuckyScratchCore",
            "label": "ticketPrice",
            "offset": 21,
            "slot": "0",
            "type": "t_uint64"
          },
          {
            "astId": 50072,
            "contract": "contracts/luckyScratch/LuckyScratchCore.sol:LuckyScratchCore",
            "label": "roundPrizeBudget",
            "offset": 0,
            "slot": "1",
            "type": "t_uint64"
          },
          {
            "astId": 50074,
            "contract": "contracts/luckyScratch/LuckyScratchCore.sol:LuckyScratchCore",
            "label": "vrfRequestRef",
            "offset": 0,
            "slot": "2",
            "type": "t_bytes32"
          },
          {
            "astId": 50076,
            "contract": "contracts/luckyScratch/LuckyScratchCore.sol:LuckyScratchCore",
            "label": "shuffleRoot",
            "offset": 0,
            "slot": "3",
            "type": "t_bytes32"
          }
        ],
        "numberOfBytes": "128"
      },
      "t_struct(TicketData)50089_storage": {
        "encoding": "inplace",
        "label": "struct TicketData",
        "members": [
          {
            "astId": 50079,
            "contract": "contracts/luckyScratch/LuckyScratchCore.sol:LuckyScratchCore",
            "label": "poolId",
            "offset": 0,
            "slot": "0",
            "type": "t_uint256"
          },
          {
            "astId": 50081,
            "contract": "contracts/luckyScratch/LuckyScratchCore.sol:LuckyScratchCore",
            "label": "roundId",
            "offset": 0,
            "slot": "1",
            "type": "t_uint256"
          },
          {
            "astId": 50083,
            "contract": "contracts/luckyScratch/LuckyScratchCore.sol:LuckyScratchCore",
            "label": "ticketIndex",
            "offset": 0,
            "slot": "2",
            "type": "t_uint32"
          },
          {
            "astId": 50086,
            "contract": "contracts/luckyScratch/LuckyScratchCore.sol:LuckyScratchCore",
            "label": "status",
            "offset": 4,
            "slot": "2",
            "type": "t_enum(TicketStatus)49986"
          },
          {
            "astId": 50088,
            "contract": "contracts/luckyScratch/LuckyScratchCore.sol:LuckyScratchCore",
            "label": "transferredBeforeScratch",
            "offset": 5,
            "slot": "2",
            "type": "t_bool"
          }
        ],
        "numberOfBytes": "96"
      },
      "t_struct(VrfRequestContext)45547_storage": {
        "encoding": "inplace",
        "label": "struct LuckyScratchCore.VrfRequestContext",
        "members": [
          {
            "astId": 45544,
            "contract": "contracts/luckyScratch/LuckyScratchCore.sol:LuckyScratchCore",
            "label": "poolId",
            "offset": 0,
            "slot": "0",
            "type": "t_uint256"
          },
          {
            "astId": 45546,
            "contract": "contracts/luckyScratch/LuckyScratchCore.sol:LuckyScratchCore",
            "label": "roundId",
            "offset": 0,
            "slot": "1",
            "type": "t_uint256"
          }
        ],
        "numberOfBytes": "64"
      },
      "t_uint16": {
        "encoding": "inplace",
        "label": "uint16",
        "numberOfBytes": "2"
      },
      "t_uint256": {
        "encoding": "inplace",
        "label": "uint256",
        "numberOfBytes": "32"
      },
      "t_uint32": {
        "encoding": "inplace",
        "label": "uint32",
        "numberOfBytes": "4"
      },
      "t_uint64": {
        "encoding": "inplace",
        "label": "uint64",
        "numberOfBytes": "8"
      },
      "t_userDefinedValueType(euint64)50135": {
        "encoding": "inplace",
        "label": "euint64",
        "numberOfBytes": "32"
      }
    }
  }
}